{
  "abi": [
    {
      "inputs": [
        {
          "internalType": "address",
          "name": "_usdc",
          "type": "address"
        }
      ],
      "stateMutability": "nonpayable",
      "type": "constructor"
    },
    {
      "anonymous": false,
      "inputs": [
        {
          "indexed": false,
          "internalType": "address",
          "name": "token",
          "type": "address"
        },
        {
          "indexed": false,
          "internalType": "address",
          "name": "user",
          "type": "address"
        },
        {
          "indexed": false,
          "internalType": "uint256",
          "name": "amount",
          "type": "uint256"
        },
        {
          "indexed": false,
          "internalType": "uint256",
          "name": "balance",
          "type": "uint256"
        }
      ],
      "name": "Deposit",
      "type": "event"
    },
    {
      "anonymous": false,
      "inputs": [
        {
          "indexed": false,
          "internalType": "address",
          "name": "token",
          "type": "address"
        },
        {
          "indexed": false,
          "internalType": "address",
          "name": "user",
          "type": "address"
        },
        {
          "indexed": false,
          "internalType": "uint256",
          "name": "amount",
          "type": "uint256"
        },
        {
          "indexed": false,
          "internalType": "uint256",
          "name": "balance",
          "type": "uint256"
        }
      ],
      "name": "Withdraw",
      "type": "event"
    },
    {
      "inputs": [
        {
          "internalType": "address",
          "name": "",
          "type": "address"
        },
        {
          "internalType": "address",
          "name": "",
          "type": "address"
        }
      ],
      "name": "collateral",
      "outputs": [
        {
          "internalType": "uint256",
          "name": "",
          "type": "uint256"
        }
      ],
      "stateMutability": "view",
      "type": "function"
    },
    {
      "inputs": [
        {
          "internalType": "uint256",
          "name": "_amount",
          "type": "uint256"
        }
      ],
      "name": "depositCollateral",
      "outputs": [],
      "stateMutability": "nonpayable",
      "type": "function"
    },
    {
      "inputs": [],
      "name": "usdc",
      "outputs": [
        {
          "internalType": "address",
          "name": "",
          "type": "address"
        }
      ],
      "stateMutability": "view",
      "type": "function"
    },
    {
      "inputs": [
        {
          "internalType": "uint256",
          "name": "_amount",
          "type": "uint256"
        }
      ],
      "name": "withdrawCollateral",
      "outputs": [],
      "stateMutability": "nonpayable",
      "type": "function"
    }
  ],
  "bytecode": {
    "object": "0x608060405234801561001057600080fd5b5060405161084a38038061084a83398101604081905261002f91610054565b600080546001600160a01b0319166001600160a01b0392909216919091179055610084565b60006020828403121561006657600080fd5b81516001600160a01b038116811461007d57600080fd5b9392505050565b6107b7806100936000396000f3fe608060405234801561001057600080fd5b506004361061004c5760003560e01c80633e413bee146100515780636112fe2e14610081578063bad4a01f14610096578063cc218ece146100a9575b600080fd5b600054610064906001600160a01b031681565b6040516001600160a01b0390911681526020015b60405180910390f35b61009461008f366004610641565b6100e2565b005b6100946100a4366004610641565b61024f565b6100d46100b7366004610676565b600160209081526000928352604080842090915290825290205481565b604051908152602001610078565b600080546001600160a01b031681526001602090815260408083203384529091529020548111156101805760405162461bcd60e51b815260206004820152603a60248201527f526571756573746564207769746864726177616c20616d6f756e74206c61726760448201527f6572207468616e20636f6c6c61746572616c2062616c616e636500000000000060648201526084015b60405180910390fd5b600054610197906001600160a01b03163383610318565b600080546001600160a01b031681526001602090815260408083203384529091529020546101c59082610380565b600080546001600160a01b0390811682526001602081815260408085203380875290835281862096909655845490931680855291815282842085855281529282902054825191825292810193909352820183905260608201527ff341246adaac6f497bc2a656f546ab9e182111d630394f0c57c710a59a2cb567906080015b60405180910390a150565b600054610267906001600160a01b0316333084610395565b600080546001600160a01b0316815260016020908152604080832033845290915290205461029590826103d3565b600080546001600160a01b0390811682526001602081815260408085203380875290835281862096909655845490931680855291815282842085855281529282902054825191825292810193909352820183905260608201527fdcbc1c05240f31ff3ad067ef1ee35ce4997762752e3a095284754544f4c709d790608001610244565b6040516001600160a01b03831660248201526044810182905261037b90849063a9059cbb60e01b906064015b60408051601f198184030181529190526020810180516001600160e01b03166001600160e01b0319909316929092179091526103df565b505050565b600061038c82846106bf565b90505b92915050565b6040516001600160a01b03808516602483015283166044820152606481018290526103cd9085906323b872dd60e01b90608401610344565b50505050565b600061038c82846106d2565b6000610434826040518060400160405280602081526020017f5361666545524332303a206c6f772d6c6576656c2063616c6c206661696c6564815250856001600160a01b03166104b19092919063ffffffff16565b80519091501561037b578080602001905181019061045291906106e5565b61037b5760405162461bcd60e51b815260206004820152602a60248201527f5361666545524332303a204552433230206f7065726174696f6e20646964206e6044820152691bdd081cdd58d8d9595960b21b6064820152608401610177565b60606104c084846000856104c8565b949350505050565b6060824710156105295760405162461bcd60e51b815260206004820152602660248201527f416464726573733a20696e73756666696369656e742062616c616e636520666f6044820152651c8818d85b1b60d21b6064820152608401610177565b600080866001600160a01b031685876040516105459190610732565b60006040518083038185875af1925050503d8060008114610582576040519150601f19603f3d011682016040523d82523d6000602084013e610587565b606091505b5091509150610598878383876105a3565b979650505050505050565b6060831561061257825160000361060b576001600160a01b0385163b61060b5760405162461bcd60e51b815260206004820152601d60248201527f416464726573733a2063616c6c20746f206e6f6e2d636f6e74726163740000006044820152606401610177565b50816104c0565b6104c083838151156106275781518083602001fd5b8060405162461bcd60e51b8152600401610177919061074e565b60006020828403121561065357600080fd5b5035919050565b80356001600160a01b038116811461067157600080fd5b919050565b6000806040838503121561068957600080fd5b6106928361065a565b91506106a06020840161065a565b90509250929050565b634e487b7160e01b600052601160045260246000fd5b8181038181111561038f5761038f6106a9565b8082018082111561038f5761038f6106a9565b6000602082840312156106f757600080fd5b8151801515811461070757600080fd5b9392505050565b60005b83811015610729578181015183820152602001610711565b50506000910152565b6000825161074481846020870161070e565b9190910192915050565b602081526000825180602084015261076d81604085016020870161070e565b601f01601f1916919091016040019291505056fea26469706673582212206dac8ad827c3b95df6a6df9064e395fd115f7cbafd51c9931a459f1720da97db64736f6c63430008110033",
    "linkReferences": {}
  },
  "methodIdentifiers": {
    "collateral(address,address)": "cc218ece",
    "depositCollateral(uint256)": "bad4a01f",
    "usdc()": "3e413bee",
    "withdrawCollateral(uint256)": "6112fe2e"
  },
  "id": 0
}