{
  "abi": [
    {
      "inputs": [
        {
          "internalType": "address",
          "name": "_link",
          "type": "address"
        }
      ],
      "stateMutability": "nonpayable",
      "type": "constructor"
    },
    {
      "anonymous": false,
      "inputs": [
        {
          "indexed": true,
          "internalType": "bytes32",
          "name": "requestId",
          "type": "bytes32"
        }
      ],
      "name": "CancelOracleRequest",
      "type": "event"
    },
    {
      "anonymous": false,
      "inputs": [
        {
          "indexed": true,
          "internalType": "bytes32",
          "name": "specId",
          "type": "bytes32"
        },
        {
          "indexed": false,
          "internalType": "address",
          "name": "requester",
          "type": "address"
        },
        {
          "indexed": false,
          "internalType": "bytes32",
          "name": "requestId",
          "type": "bytes32"
        },
        {
          "indexed": false,
          "internalType": "uint256",
          "name": "payment",
          "type": "uint256"
        },
        {
          "indexed": false,
          "internalType": "address",
          "name": "callbackAddr",
          "type": "address"
        },
        {
          "indexed": false,
          "internalType": "bytes4",
          "name": "callbackFunctionId",
          "type": "bytes4"
        },
        {
          "indexed": false,
          "internalType": "uint256",
          "name": "cancelExpiration",
          "type": "uint256"
        },
        {
          "indexed": false,
          "internalType": "uint256",
          "name": "dataVersion",
          "type": "uint256"
        },
        {
          "indexed": false,
          "internalType": "bytes",
          "name": "data",
          "type": "bytes"
        }
      ],
      "name": "OracleRequest",
      "type": "event"
    },
    {
      "inputs": [],
      "name": "EXPIRY_TIME",
      "outputs": [
        {
          "internalType": "uint256",
          "name": "",
          "type": "uint256"
        }
      ],
      "stateMutability": "view",
      "type": "function"
    },
    {
      "inputs": [
        {
          "internalType": "bytes32",
          "name": "_requestId",
          "type": "bytes32"
        },
        {
          "internalType": "uint256",
          "name": "_payment",
          "type": "uint256"
        },
        {
          "internalType": "bytes4",
          "name": "",
          "type": "bytes4"
        },
        {
          "internalType": "uint256",
          "name": "_expiration",
          "type": "uint256"
        }
      ],
      "name": "cancelOracleRequest",
      "outputs": [],
      "stateMutability": "nonpayable",
      "type": "function"
    },
    {
      "inputs": [
        {
          "internalType": "bytes32",
          "name": "_requestId",
          "type": "bytes32"
        },
        {
          "internalType": "bytes32",
          "name": "_data1",
          "type": "bytes32"
        },
        {
          "internalType": "bytes32",
          "name": "_data2",
          "type": "bytes32"
        }
      ],
      "name": "fulfillOracleScoreRequest",
      "outputs": [
        {
          "internalType": "bool",
          "name": "",
          "type": "bool"
        }
      ],
      "stateMutability": "nonpayable",
      "type": "function"
    },
    {
      "inputs": [
        {
          "internalType": "bytes32",
          "name": "_requestId",
          "type": "bytes32"
        },
        {
          "internalType": "string",
          "name": "_data",
          "type": "string"
        }
      ],
      "name": "fulfillOracleStatusRequest",
      "outputs": [
        {
          "internalType": "bool",
          "name": "",
          "type": "bool"
        }
      ],
      "stateMutability": "nonpayable",
      "type": "function"
    },
    {
      "inputs": [],
      "name": "getChainlinkToken",
      "outputs": [
        {
          "internalType": "address",
          "name": "",
          "type": "address"
        }
      ],
      "stateMutability": "view",
      "type": "function"
    },
    {
      "inputs": [
        {
          "internalType": "address",
          "name": "_sender",
          "type": "address"
        },
        {
          "internalType": "uint256",
          "name": "_amount",
          "type": "uint256"
        },
        {
          "internalType": "bytes",
          "name": "_data",
          "type": "bytes"
        }
      ],
      "name": "onTokenTransfer",
      "outputs": [],
      "stateMutability": "nonpayable",
      "type": "function"
    },
    {
      "inputs": [
        {
          "internalType": "address",
          "name": "_sender",
          "type": "address"
        },
        {
          "internalType": "uint256",
          "name": "_payment",
          "type": "uint256"
        },
        {
          "internalType": "bytes32",
          "name": "_specId",
          "type": "bytes32"
        },
        {
          "internalType": "address",
          "name": "_callbackAddress",
          "type": "address"
        },
        {
          "internalType": "bytes4",
          "name": "_callbackFunctionId",
          "type": "bytes4"
        },
        {
          "internalType": "uint256",
          "name": "_nonce",
          "type": "uint256"
        },
        {
          "internalType": "uint256",
          "name": "_dataVersion",
          "type": "uint256"
        },
        {
          "internalType": "bytes",
          "name": "_data",
          "type": "bytes"
        }
      ],
      "name": "oracleRequest",
      "outputs": [],
      "stateMutability": "nonpayable",
      "type": "function"
    }
  ],
  "bytecode": {
    "object": "0x608060405234801561001057600080fd5b50604051610f01380380610f0183398101604081905261002f91610054565b600080546001600160a01b0319166001600160a01b0392909216919091179055610084565b60006020828403121561006657600080fd5b81516001600160a01b038116811461007d57600080fd5b9392505050565b610e6e806100936000396000f3fe608060405234801561001057600080fd5b506004361061007d5760003560e01c80636ee4d5531161005b5780636ee4d553146100ce578063a4c0ed36146100e1578063c5e639ca146100f4578063eefdb5901461011757600080fd5b8063165d35e11461008257806340429946146100a25780634b602282146100b7575b600080fd5b6000546040516001600160a01b0390911681526020015b60405180910390f35b6100b56100b0366004610aa6565b61012a565b005b6100c061012c81565b604051908152602001610099565b6100b56100dc366004610b45565b610372565b6100b56100ef366004610b98565b6104e0565b610107610102366004610c63565b6106b8565b6040519015158152602001610099565b610107610125366004610caf565b61087e565b6000546001600160a01b0316331461017f5760405162461bcd60e51b815260206004820152601360248201527226bab9ba103ab9b2902624a725903a37b5b2b760691b60448201526064015b60405180910390fd5b60005486906001600160a01b03908116908216036101df5760405162461bcd60e51b815260206004820152601760248201527f43616e6e6f742063616c6c6261636b20746f204c494e4b0000000000000000006044820152606401610176565b6040516bffffffffffffffffffffffff1960608c901b1660208201526034810186905260009060540160408051601f198184030181529181528151602092830120600081815260019093529120549091506001600160a01b03161561027d5760405162461bcd60e51b8152602060048201526014602482015273135d5cdd081d5cd94818481d5b9a5c5d5948125160621b6044820152606401610176565b600061028b4261012c6109c1565b905060405180604001604052808a6001600160a01b03168152602001896001600160e01b0319168152506001600084815260200190815260200160002060008201518160000160006101000a8154816001600160a01b0302191690836001600160a01b0316021790555060208201518160000160146101000a81548163ffffffff021916908360e01c0217905550905050897fd8d7ecc4800d25fa53ce0372f13a416d98907a7ef3d8d3bdd79cf4fe75529c658d848e8d8d878d8d8d60405161035c99989796959493929190610d04565b60405180910390a2505050505050505050505050565b6000848152600160205260409020546001600160a01b03166103cd5760405162461bcd60e51b8152602060048201526014602482015273135d5cdd081d5cd94818481d5b9a5c5d5948125160621b6044820152606401610176565b428111156104165760405162461bcd60e51b815260206004820152601660248201527514995c5d595cdd081a5cc81b9bdd08195e1c1a5c995960521b6044820152606401610176565b60008481526001602052604080822080546001600160c01b03191690555185917fa7842b9ec549398102c0d91b1b9919b2f20558aefdadf57528a95c6cd3292e9391a260005460405163a9059cbb60e01b8152336004820152602481018590526001600160a01b039091169063a9059cbb906044016020604051808303816000875af11580156104aa573d6000803e3d6000fd5b505050506040513d601f19601f820116820180604052508101906104ce9190610d6e565b6104da576104da610d90565b50505050565b6000546001600160a01b031633146105305760405162461bcd60e51b815260206004820152601360248201527226bab9ba103ab9b2902624a725903a37b5b2b760691b6044820152606401610176565b8061053d60026020610dbc565b610548906004610dd3565b815110156105915760405162461bcd60e51b8152602060048201526016602482015275092dcecc2d8d2c840e4cae2eacae6e840d8cadccee8d60531b6044820152606401610176565b602082015182906001600160e01b031981166320214ca360e11b146105f85760405162461bcd60e51b815260206004820152601e60248201527f4d757374207573652077686974656c69737465642066756e6374696f6e7300006044820152606401610176565b8560248501528460448501526000306001600160a01b03168560405161061e9190610de6565b600060405180830381855af49150503d8060008114610659576040519150601f19603f3d011682016040523d82523d6000602084013e61065e565b606091505b50509050806106af5760405162461bcd60e51b815260206004820152601860248201527f556e61626c6520746f20637265617465207265717565737400000000000000006044820152606401610176565b50505050505050565b60008381526001602052604081205484906001600160a01b031661071e5760405162461bcd60e51b815260206004820152601b60248201527f4d757374206861766520612076616c69642072657175657374496400000000006044820152606401610176565b6000858152600160208181526040808420815180830190925280546001600160a01b03811683526001600160e01b0319600160a01b820460e01b1683850152948a9052929091526001600160c01b0319909216905562061a805a10156107c65760405162461bcd60e51b815260206004820181905260248201527f4d7573742070726f7669646520636f6e73756d657220656e6f756768206761736044820152606401610176565b600081600001516001600160a01b031682602001518888886040516024016107f093929190610e15565b60408051601f198184030181529181526020820180516001600160e01b03166001600160e01b031990941693909317909252905161082e9190610de6565b6000604051808303816000865af19150503d806000811461086b576040519150601f19603f3d011682016040523d82523d6000602084013e610870565b606091505b509098975050505050505050565b60008381526001602052604081205484906001600160a01b03166108e45760405162461bcd60e51b815260206004820152601b60248201527f4d757374206861766520612076616c69642072657175657374496400000000006044820152606401610176565b6000858152600160208181526040808420815180830190925280546001600160a01b03811683526001600160e01b0319600160a01b820460e01b1683850152948a9052929091526001600160c01b0319909216905562061a805a101561098c5760405162461bcd60e51b815260206004820181905260248201527f4d7573742070726f7669646520636f6e73756d657220656e6f756768206761736044820152606401610176565b805160208201516040516024810189905260448101889052606481018790526000926001600160a01b031691906084016107f0565b6000806109ce8385610dd3565b905083811015610a205760405162461bcd60e51b815260206004820152601b60248201527f536166654d6174683a206164646974696f6e206f766572666c6f7700000000006044820152606401610176565b90505b92915050565b80356001600160a01b0381168114610a4057600080fd5b919050565b80356001600160e01b031981168114610a4057600080fd5b60008083601f840112610a6f57600080fd5b50813567ffffffffffffffff811115610a8757600080fd5b602083019150836020828501011115610a9f57600080fd5b9250929050565b60008060008060008060008060006101008a8c031215610ac557600080fd5b610ace8a610a29565b985060208a0135975060408a01359650610aea60608b01610a29565b9550610af860808b01610a45565b945060a08a0135935060c08a0135925060e08a013567ffffffffffffffff811115610b2257600080fd5b610b2e8c828d01610a5d565b915080935050809150509295985092959850929598565b60008060008060808587031215610b5b57600080fd5b8435935060208501359250610b7260408601610a45565b9396929550929360600135925050565b634e487b7160e01b600052604160045260246000fd5b600080600060608486031215610bad57600080fd5b610bb684610a29565b925060208401359150604084013567ffffffffffffffff80821115610bda57600080fd5b818601915086601f830112610bee57600080fd5b813581811115610c0057610c00610b82565b604051601f8201601f19908116603f01168101908382118183101715610c2857610c28610b82565b81604052828152896020848701011115610c4157600080fd5b8260208601602083013760006020848301015280955050505050509250925092565b600080600060408486031215610c7857600080fd5b83359250602084013567ffffffffffffffff811115610c9657600080fd5b610ca286828701610a5d565b9497909650939450505050565b600080600060608486031215610cc457600080fd5b505081359360208301359350604090920135919050565b81835281816020850137506000828201602090810191909152601f909101601f19169091010190565b6001600160a01b038a81168252602082018a905260408201899052871660608201526001600160e01b03198616608082015260a0810185905260c0810184905261010060e08201819052600090610d5e8382018587610cdb565b9c9b505050505050505050505050565b600060208284031215610d8057600080fd5b81518015158114610a2057600080fd5b634e487b7160e01b600052600160045260246000fd5b634e487b7160e01b600052601160045260246000fd5b8082028115828204841417610a2357610a23610da6565b80820180821115610a2357610a23610da6565b6000825160005b81811015610e075760208186018101518583015201610ded565b506000920191825250919050565b838152604060208201526000610e2f604083018486610cdb565b9594505050505056fea2646970667358221220e362ecb4af5c8628bb414df08a811e9a87c4abd3deeeea7ebcaee273fa7d0e3f64736f6c63430008110033",
    "linkReferences": {}
  },
  "methodIdentifiers": {
    "EXPIRY_TIME()": "4b602282",
    "cancelOracleRequest(bytes32,uint256,bytes4,uint256)": "6ee4d553",
    "fulfillOracleScoreRequest(bytes32,bytes32,bytes32)": "eefdb590",
    "fulfillOracleStatusRequest(bytes32,string)": "c5e639ca",
    "getChainlinkToken()": "165d35e1",
    "onTokenTransfer(address,uint256,bytes)": "a4c0ed36",
    "oracleRequest(address,uint256,bytes32,address,bytes4,uint256,uint256,bytes)": "40429946"
  },
  "id": 6
}