{
  "abi": [
    {
      "inputs": [
        {
          "internalType": "address",
          "name": "_linkAddress",
          "type": "address"
        },
        {
          "internalType": "address",
          "name": "_oracleAddress",
          "type": "address"
        }
      ],
      "stateMutability": "nonpayable",
      "type": "constructor"
    },
    {
      "anonymous": false,
      "inputs": [
        {
          "indexed": true,
          "internalType": "bytes32",
          "name": "id",
          "type": "bytes32"
        }
      ],
      "name": "ChainlinkCancelled",
      "type": "event"
    },
    {
      "anonymous": false,
      "inputs": [
        {
          "indexed": true,
          "internalType": "bytes32",
          "name": "id",
          "type": "bytes32"
        }
      ],
      "name": "ChainlinkFulfilled",
      "type": "event"
    },
    {
      "anonymous": false,
      "inputs": [
        {
          "indexed": true,
          "internalType": "bytes32",
          "name": "id",
          "type": "bytes32"
        }
      ],
      "name": "ChainlinkRequested",
      "type": "event"
    },
    {
      "anonymous": false,
      "inputs": [
        {
          "indexed": true,
          "internalType": "address",
          "name": "from",
          "type": "address"
        },
        {
          "indexed": true,
          "internalType": "address",
          "name": "to",
          "type": "address"
        }
      ],
      "name": "OwnershipTransferRequested",
      "type": "event"
    },
    {
      "anonymous": false,
      "inputs": [
        {
          "indexed": true,
          "internalType": "address",
          "name": "from",
          "type": "address"
        },
        {
          "indexed": true,
          "internalType": "address",
          "name": "to",
          "type": "address"
        }
      ],
      "name": "OwnershipTransferred",
      "type": "event"
    },
    {
      "anonymous": false,
      "inputs": [
        {
          "indexed": true,
          "internalType": "bytes32",
          "name": "requestId",
          "type": "bytes32"
        },
        {
          "indexed": false,
          "internalType": "string",
          "name": "stringVariable",
          "type": "string"
        }
      ],
      "name": "RequestFulfilledGameStatus",
      "type": "event"
    },
    {
      "anonymous": false,
      "inputs": [
        {
          "indexed": true,
          "internalType": "bytes32",
          "name": "requestId",
          "type": "bytes32"
        },
        {
          "indexed": true,
          "internalType": "uint256",
          "name": "Value1",
          "type": "uint256"
        },
        {
          "indexed": true,
          "internalType": "uint256",
          "name": "Value2",
          "type": "uint256"
        }
      ],
      "name": "RequestFulfilledGameStatusScores",
      "type": "event"
    },
    {
      "inputs": [],
      "name": "acceptOwnership",
      "outputs": [],
      "stateMutability": "nonpayable",
      "type": "function"
    },
    {
      "inputs": [],
      "name": "awayScore",
      "outputs": [
        {
          "internalType": "uint256",
          "name": "",
          "type": "uint256"
        }
      ],
      "stateMutability": "view",
      "type": "function"
    },
    {
      "inputs": [],
      "name": "baseAPIUrl",
      "outputs": [
        {
          "internalType": "string",
          "name": "",
          "type": "string"
        }
      ],
      "stateMutability": "view",
      "type": "function"
    },
    {
      "inputs": [
        {
          "internalType": "string",
          "name": "str2",
          "type": "string"
        }
      ],
      "name": "compare",
      "outputs": [
        {
          "internalType": "bool",
          "name": "",
          "type": "bool"
        }
      ],
      "stateMutability": "view",
      "type": "function"
    },
    {
      "inputs": [
        {
          "internalType": "string",
          "name": "a",
          "type": "string"
        },
        {
          "internalType": "string",
          "name": "b",
          "type": "string"
        }
      ],
      "name": "concatenation",
      "outputs": [
        {
          "internalType": "string",
          "name": "",
          "type": "string"
        }
      ],
      "stateMutability": "pure",
      "type": "function"
    },
    {
      "inputs": [
        {
          "internalType": "bytes32",
          "name": "requestId",
          "type": "bytes32"
        },
        {
          "internalType": "string",
          "name": "_stringVariable",
          "type": "string"
        }
      ],
      "name": "fulfillGameStatus",
      "outputs": [],
      "stateMutability": "nonpayable",
      "type": "function"
    },
    {
      "inputs": [
        {
          "internalType": "bytes32",
          "name": "requestId",
          "type": "bytes32"
        },
        {
          "internalType": "uint256",
          "name": "_Value1",
          "type": "uint256"
        },
        {
          "internalType": "uint256",
          "name": "_Value2",
          "type": "uint256"
        }
      ],
      "name": "fulfillScores",
      "outputs": [],
      "stateMutability": "nonpayable",
      "type": "function"
    },
    {
      "inputs": [],
      "name": "gameStatus",
      "outputs": [
        {
          "internalType": "string",
          "name": "",
          "type": "string"
        }
      ],
      "stateMutability": "view",
      "type": "function"
    },
    {
      "inputs": [],
      "name": "homeScore",
      "outputs": [
        {
          "internalType": "uint256",
          "name": "",
          "type": "uint256"
        }
      ],
      "stateMutability": "view",
      "type": "function"
    },
    {
      "inputs": [],
      "name": "owner",
      "outputs": [
        {
          "internalType": "address",
          "name": "",
          "type": "address"
        }
      ],
      "stateMutability": "view",
      "type": "function"
    },
    {
      "inputs": [
        {
          "internalType": "string",
          "name": "_gameId",
          "type": "string"
        }
      ],
      "name": "requestGameScore",
      "outputs": [
        {
          "internalType": "bytes32",
          "name": "",
          "type": "bytes32"
        }
      ],
      "stateMutability": "nonpayable",
      "type": "function"
    },
    {
      "inputs": [
        {
          "internalType": "string",
          "name": "_gameId",
          "type": "string"
        }
      ],
      "name": "requestGameStatus",
      "outputs": [
        {
          "internalType": "bytes32",
          "name": "",
          "type": "bytes32"
        }
      ],
      "stateMutability": "nonpayable",
      "type": "function"
    },
    {
      "inputs": [
        {
          "internalType": "address",
          "name": "to",
          "type": "address"
        }
      ],
      "name": "transferOwnership",
      "outputs": [],
      "stateMutability": "nonpayable",
      "type": "function"
    }
  ],
  "bytecode": {
    "object": "0x600160045560e0604052602660808181529062001bcd60a039600890620000279082620002fb565b503480156200003557600080fd5b5060405162001bf338038062001bf38339810160408190526200005891620003e4565b3380600081620000af5760405162461bcd60e51b815260206004820152601860248201527f43616e6e6f7420736574206f776e657220746f207a65726f000000000000000060448201526064015b60405180910390fd5b600680546001600160a01b0319166001600160a01b0384811691909117909155811615620000e257620000e28162000188565b505050620000f6826200023460201b60201c565b600380546001600160a01b0319166001600160a01b0383161790557f65333562613531643661633134323230623265353535346535653161393761356009557f3539623935643434646165343432643639663438643039613064646162663665600a90815562000170670de0b6b3a764000060006200041c565b6200017c919062000448565b600b55506200046b9050565b336001600160a01b03821603620001e25760405162461bcd60e51b815260206004820152601760248201527f43616e6e6f74207472616e7366657220746f2073656c660000000000000000006044820152606401620000a6565b600780546001600160a01b0319166001600160a01b03838116918217909255600654604051919216907fed8889f560326eb138920d842192f0eb3dd22b4f139c87a2c57538e05bae127890600090a350565b600280546001600160a01b0319166001600160a01b0392909216919091179055565b634e487b7160e01b600052604160045260246000fd5b600181811c908216806200028157607f821691505b602082108103620002a257634e487b7160e01b600052602260045260246000fd5b50919050565b601f821115620002f657600081815260208120601f850160051c81016020861015620002d15750805b601f850160051c820191505b81811015620002f257828155600101620002dd565b5050505b505050565b81516001600160401b0381111562000317576200031762000256565b6200032f816200032884546200026c565b84620002a8565b602080601f8311600181146200036757600084156200034e5750858301515b600019600386901b1c1916600185901b178555620002f2565b600085815260208120601f198616915b82811015620003985788860151825594840194600190910190840162000377565b5085821015620003b75787850151600019600388901b60f8161c191681555b5050505050600190811b01905550565b80516001600160a01b0381168114620003df57600080fd5b919050565b60008060408385031215620003f857600080fd5b6200040383620003c7565b91506200041360208401620003c7565b90509250929050565b80820281158282048414176200044257634e487b7160e01b600052601160045260246000fd5b92915050565b6000826200046657634e487b7160e01b600052601260045260246000fd5b500490565b611752806200047b6000396000f3fe608060405234801561001057600080fd5b50600436106100cf5760003560e01c806379ba50971161008c578063d38d963911610066578063d38d963914610192578063e451aaef1461019b578063ef432445146101ae578063f2fde38b146101c157600080fd5b806379ba5097146101675780638da5cb5b1461016f5780639b2f52a71461018a57600080fd5b80630c8da222146100d45780630e329357146100e957806323202faa146101125780636db5fc9c1461013557806371b488641461014c578063722fed7e1461015f575b600080fd5b6100e76100e236600461110a565b6101d4565b005b6100fc6100f7366004611150565b6102a2565b60405161010991906111f9565b60405180910390f35b61012561012036600461120c565b6102cf565b6040519015158152602001610109565b61013e600c5481565b604051908152602001610109565b61013e61015a36600461120c565b610328565b6100fc610511565b6100e761059f565b6006546040516001600160a01b039091168152602001610109565b6100fc61064d565b61013e600d5481565b6100e76101a9366004611240565b61065a565b61013e6101bc36600461120c565b610711565b6100e76101cf36600461126c565b6107bf565b60008281526005602052604090205482906001600160a01b031633146102155760405162461bcd60e51b815260040161020c90611295565b60405180910390fd5b60008181526005602052604080822080546001600160a01b03191690555182917f7cc135e0cebb02c3480ae5d74d377283180a2601f8f644edf7987b009316c63a91a2827f7e4015a2e7dc43284f327a35a916d862102d03a8984e126216a6c4b6bc659fdf8360405161028891906111f9565b60405180910390a2600e61029c838261135f565b50505050565b606082826040516020016102b792919061141e565b60405160208183030381529060405290505b92915050565b6000816040516020016102e2919061144d565b60405160208183030381529060405280519060200120600e60405160200161030a9190611469565b60405160208183030381529060405280519060200120149050919050565b60006103326107d3565b60006103486009543063e451aaef60e01b610828565b90506104056040518060400160405280600381526020016219d95d60ea1b8152506103fd60088054610379906112dd565b80601f01602080910402602001604051908101604052809291908181526020018280546103a5906112dd565b80156103f25780601f106103c7576101008083540402835291602001916103f2565b820191906000526020600020905b8154815290600101906020018083116103d557829003601f168201915b5050505050866102a2565b83919061084d565b61046460405180604001604052806005815260200164706174683160d81b81525060405180604001604052806015815260200174726573706f6e73652c302c676f616c732c686f6d6560581b8152508361084d9092919063ffffffff16565b6104c3604051806040016040528060058152602001643830ba341960d91b81525060405180604001604052806015815260200174726573706f6e73652c302c676f616c732c6177617960581b8152508361084d9092919063ffffffff16565b60408051808201909152600581526474696d657360d81b60208201526104ec9082906064610870565b61050a6105016003546001600160a01b031690565b82600b5461088e565b9392505050565b600e805461051e906112dd565b80601f016020809104026020016040519081016040528092919081815260200182805461054a906112dd565b80156105975780601f1061056c57610100808354040283529160200191610597565b820191906000526020600020905b81548152906001019060200180831161057a57829003601f168201915b505050505081565b6007546001600160a01b031633146105f25760405162461bcd60e51b815260206004820152601660248201527526bab9ba10313290383937b837b9b2b21037bbb732b960511b604482015260640161020c565b600680546001600160a01b0319808216339081179093556007805490911690556040516001600160a01b03909116919082907f8be0079c531659141344cd1fd0a4f28419497f9722a3daafe3b4186f6b6457e090600090a350565b6008805461051e906112dd565b60008381526005602052604090205483906001600160a01b031633146106925760405162461bcd60e51b815260040161020c90611295565b60008181526005602052604080822080546001600160a01b03191690555182917f7cc135e0cebb02c3480ae5d74d377283180a2601f8f644edf7987b009316c63a91a28183857f1c9ea780e549e9c988e3df8eee93f18fe86bac78ed8be3865ef69f3dfc80538960405160405180910390a450600c91909155600d5550565b600080610728600a5430630c8da22260e01b610828565b90506107596040518060400160405280600381526020016219d95d60ea1b8152506103fd60088054610379906112dd565b6104ec604051806040016040528060048152602001630e0c2e8d60e31b8152506040518060400160405280601f81526020017f726573706f6e73652c302c666978747572652c7374617475732c73686f7274008152508361084d9092919063ffffffff16565b6107c76107d3565b6107d081610921565b50565b6006546001600160a01b031633146108265760405162461bcd60e51b815260206004820152601660248201527527b7363c9031b0b63630b1363290313c9037bbb732b960511b604482015260640161020c565b565b61083061102d565b61083861102d565b610844818686866109cb565b95945050505050565b608083015161085c9083610a11565b608083015161086b9082610a11565b505050565b608083015161087f9083610a11565b608083015161086b9082610a28565b60045460009061089f8160016114f5565b600455835160408086015160808701515191516000936320214ca360e11b936108d79386938493923092918a91600191602401611508565b60408051601f198184030181529190526020810180516001600160e01b03166001600160e01b031990931692909217909152905061091786838684610a8b565b9695505050505050565b336001600160a01b038216036109795760405162461bcd60e51b815260206004820152601760248201527f43616e6e6f74207472616e7366657220746f2073656c66000000000000000000604482015260640161020c565b600780546001600160a01b0319166001600160a01b03838116918217909255600654604051919216907fed8889f560326eb138920d842192f0eb3dd22b4f139c87a2c57538e05bae127890600090a350565b6109d361102d565b6109e38560800151610100610be9565b50508284526001600160a01b03821660208501526001600160e01b031981166040850152835b949350505050565b610a1e8260038351610c4e565b61086b8282610d55565b67ffffffffffffffff19811215610a4757610a438282610d7c565b5050565b6001600160401b03811315610a6057610a438282610dbe565b60008112610a7457610a4382600083610c4e565b610a43826001610a8684600019611570565b610c4e565b6040516bffffffffffffffffffffffff193060601b1660208201526034810184905260009060540160408051808303601f1901815282825280516020918201206000818152600590925291812080546001600160a01b0319166001600160a01b038a1617905590925082917fb5e6e01e79f91267dc17b4e6314d5d4d03593d2ceee0fbb452b750bd70ea5af99190a2600254604051630200057560e51b81526001600160a01b0390911690634000aea090610b4e90889087908790600401611597565b6020604051808303816000875af1158015610b6d573d6000803e3d6000fd5b505050506040513d601f19601f82011682018060405250810190610b9191906115be565b610a095760405162461bcd60e51b815260206004820152602360248201527f756e61626c6520746f207472616e73666572416e6443616c6c20746f206f7261604482015262636c6560e81b606482015260840161020c565b604080518082019091526060815260006020820152610c096020836115e0565b15610c3157610c196020836115e0565b610c24906020611602565b610c2e90836114f5565b91505b506020828101829052604080518085526000815290920101905290565b6017816001600160401b031611610c725761029c8360e0600585901b168317610de1565b60ff816001600160401b031611610cae57610c98836018611fe0600586901b1617610de1565b5061029c836001600160401b0383166001610e06565b61ffff816001600160401b031611610ceb57610cd5836019611fe0600586901b1617610de1565b5061029c836001600160401b0383166002610e06565b63ffffffff816001600160401b031611610d2a57610d1483601a611fe0600586901b1617610de1565b5061029c836001600160401b0383166004610e06565b610d3f83601b611fe0600586901b1617610de1565b5061029c836001600160401b0383166008610e06565b60408051808201909152606081526000602082015261050a83846000015151848551610e2c565b610d878260c3610de1565b50610a4382610d9883600019611570565b604051602001610daa91815260200190565b604051602081830303815290604052610f16565b610dc98260c2610de1565b50610a438282604051602001610daa91815260200190565b60408051808201909152606081526000602082015261050a8384600001515184610f23565b604080518082019091526060815260006020820152610a09848560000151518585610f7e565b6040805180820190915260608152600060208201528251821115610e4f57600080fd5b6020850151610e5e83866114f5565b1115610e9157610e9185610e8187602001518786610e7c91906114f5565b610fff565b610e8c906002611615565b611016565b600080865180518760208301019350808887011115610eb05787860182525b505050602084015b60208410610ef05780518252610ecf6020836114f5565b9150610edc6020826114f5565b9050610ee9602085611602565b9350610eb8565b51815160001960208690036101000a019081169019919091161790525083949350505050565b610a1e8260028351610c4e565b60408051808201909152606081526000602082015283602001518310610f5857610f588485602001516002610e8c9190611615565b8351805160208583010184815350808503610f74576001810182525b5093949350505050565b6040805180820190915260608152600060208201526020850151610fa285846114f5565b1115610fb657610fb685610e8186856114f5565b60006001610fc684610100611710565b610fd09190611602565b9050855183868201018583198251161781525080518487011115610ff45783860181525b509495945050505050565b6000818311156110105750816102c9565b50919050565b81516110228383610be9565b5061029c8382610d55565b6040805160a0810182526000808252602080830182905282840182905260608084018390528451808601909552845283015290608082015290565b634e487b7160e01b600052604160045260246000fd5b600082601f83011261108f57600080fd5b81356001600160401b03808211156110a9576110a9611068565b604051601f8301601f19908116603f011681019082821181831017156110d1576110d1611068565b816040528381528660208588010111156110ea57600080fd5b836020870160208301376000602085830101528094505050505092915050565b6000806040838503121561111d57600080fd5b8235915060208301356001600160401b0381111561113a57600080fd5b6111468582860161107e565b9150509250929050565b6000806040838503121561116357600080fd5b82356001600160401b038082111561117a57600080fd5b6111868683870161107e565b9350602085013591508082111561119c57600080fd5b506111468582860161107e565b60005b838110156111c45781810151838201526020016111ac565b50506000910152565b600081518084526111e58160208601602086016111a9565b601f01601f19169290920160200192915050565b60208152600061050a60208301846111cd565b60006020828403121561121e57600080fd5b81356001600160401b0381111561123457600080fd5b610a098482850161107e565b60008060006060848603121561125557600080fd5b505081359360208301359350604090920135919050565b60006020828403121561127e57600080fd5b81356001600160a01b038116811461050a57600080fd5b60208082526028908201527f536f75726365206d75737420626520746865206f7261636c65206f6620746865604082015267081c995c5d595cdd60c21b606082015260800190565b600181811c908216806112f157607f821691505b60208210810361101057634e487b7160e01b600052602260045260246000fd5b601f82111561086b57600081815260208120601f850160051c810160208610156113385750805b601f850160051c820191505b8181101561135757828155600101611344565b505050505050565b81516001600160401b0381111561137857611378611068565b61138c8161138684546112dd565b84611311565b602080601f8311600181146113c157600084156113a95750858301515b600019600386901b1c1916600185901b178555611357565b600085815260208120601f198616915b828110156113f0578886015182559484019460019091019084016113d1565b508582101561140e5787850151600019600388901b60f8161c191681555b5050505050600190811b01905550565b600083516114308184602088016111a9565b8351908301906114448183602088016111a9565b01949350505050565b6000825161145f8184602087016111a9565b9190910192915050565b6000808354611477816112dd565b6001828116801561148f57600181146114a4576114d3565b60ff19841687528215158302870194506114d3565b8760005260208060002060005b858110156114ca5781548a8201529084019082016114b1565b50505082870194505b50929695505050505050565b634e487b7160e01b600052601160045260246000fd5b808201808211156102c9576102c96114df565b6001600160a01b0389811682526020820189905260408201889052861660608201526001600160e01b03198516608082015260a0810184905260c0810183905261010060e08201819052600090611561838201856111cd565b9b9a5050505050505050505050565b8181036000831280158383131683831282161715611590576115906114df565b5092915050565b60018060a01b038416815282602082015260606040820152600061084460608301846111cd565b6000602082840312156115d057600080fd5b8151801515811461050a57600080fd5b6000826115fd57634e487b7160e01b600052601260045260246000fd5b500690565b818103818111156102c9576102c96114df565b80820281158282048414176102c9576102c96114df565b600181815b8085111561166757816000190482111561164d5761164d6114df565b8085161561165a57918102915b93841c9390800290611631565b509250929050565b60008261167e575060016102c9565b8161168b575060006102c9565b81600181146116a157600281146116ab576116c7565b60019150506102c9565b60ff8411156116bc576116bc6114df565b50506001821b6102c9565b5060208310610133831016604e8410600b84101617156116ea575081810a6102c9565b6116f4838361162c565b8060001904821115611708576117086114df565b029392505050565b600061050a838361166f56fea2646970667358221220990804d5b631490b8fee968ba9cf6bf6f66448f51c76b0e3d5ccb4687ce43f0b64736f6c6343000813003368747470733a2f2f6170702e6e65786c6162732e696f2f6170692f666f6f7462616c6c483248",
    "linkReferences": {}
  },
  "methodIdentifiers": {
    "acceptOwnership()": "79ba5097",
    "awayScore()": "d38d9639",
    "baseAPIUrl()": "9b2f52a7",
    "compare(string)": "23202faa",
    "concatenation(string,string)": "0e329357",
    "fulfillGameStatus(bytes32,string)": "0c8da222",
    "fulfillScores(bytes32,uint256,uint256)": "e451aaef",
    "gameStatus()": "722fed7e",
    "homeScore()": "6db5fc9c",
    "owner()": "8da5cb5b",
    "requestGameScore(string)": "71b48864",
    "requestGameStatus(string)": "ef432445",
    "transferOwnership(address)": "f2fde38b"
  },
  "id": 1
}