{
  "abi": [
    {
      "inputs": [
        {
          "internalType": "address",
          "name": "_gameOracleAddress",
          "type": "address"
        },
        {
          "internalType": "address",
          "name": "_usdc",
          "type": "address"
        },
        {
          "internalType": "address",
          "name": "_admin",
          "type": "address"
        }
      ],
      "stateMutability": "nonpayable",
      "type": "constructor"
    },
    {
      "anonymous": false,
      "inputs": [
        {
          "indexed": true,
          "internalType": "address",
          "name": "accountA",
          "type": "address"
        },
        {
          "indexed": false,
          "internalType": "address",
          "name": "accountB",
          "type": "address"
        },
        {
          "indexed": true,
          "internalType": "uint256",
          "name": "betIndex",
          "type": "uint256"
        },
        {
          "indexed": false,
          "internalType": "uint256",
          "name": "betPriceA",
          "type": "uint256"
        },
        {
          "indexed": false,
          "internalType": "uint256",
          "name": "betPriceB",
          "type": "uint256"
        },
        {
          "indexed": false,
          "internalType": "uint256",
          "name": "contractAmount",
          "type": "uint256"
        }
      ],
      "name": "BetACreated",
      "type": "event"
    },
    {
      "anonymous": false,
      "inputs": [
        {
          "indexed": false,
          "internalType": "address",
          "name": "accountA",
          "type": "address"
        },
        {
          "indexed": true,
          "internalType": "address",
          "name": "accountB",
          "type": "address"
        },
        {
          "indexed": true,
          "internalType": "uint256",
          "name": "betIndex",
          "type": "uint256"
        },
        {
          "indexed": false,
          "internalType": "uint256",
          "name": "betPriceA",
          "type": "uint256"
        },
        {
          "indexed": false,
          "internalType": "uint256",
          "name": "betPriceB",
          "type": "uint256"
        },
        {
          "indexed": false,
          "internalType": "uint256",
          "name": "contractAmount",
          "type": "uint256"
        }
      ],
      "name": "BetBCreated",
      "type": "event"
    },
    {
      "anonymous": false,
      "inputs": [
        {
          "indexed": true,
          "internalType": "address",
          "name": "account",
          "type": "address"
        },
        {
          "indexed": true,
          "internalType": "uint256",
          "name": "betIndex",
          "type": "uint256"
        },
        {
          "indexed": false,
          "internalType": "uint256",
          "name": "betPrice",
          "type": "uint256"
        },
        {
          "indexed": false,
          "internalType": "uint256",
          "name": "contractAmount",
          "type": "uint256"
        }
      ],
      "name": "BetCanceled",
      "type": "event"
    },
    {
      "anonymous": false,
      "inputs": [
        {
          "indexed": true,
          "internalType": "address",
          "name": "winner",
          "type": "address"
        },
        {
          "indexed": true,
          "internalType": "address",
          "name": "loser",
          "type": "address"
        },
        {
          "indexed": false,
          "internalType": "uint256",
          "name": "betPriceWinner",
          "type": "uint256"
        },
        {
          "indexed": false,
          "internalType": "uint256",
          "name": "betPriceLoser",
          "type": "uint256"
        },
        {
          "indexed": false,
          "internalType": "uint256",
          "name": "contractAmount",
          "type": "uint256"
        }
      ],
      "name": "BetExecuted",
      "type": "event"
    },
    {
      "anonymous": false,
      "inputs": [
        {
          "indexed": true,
          "internalType": "address",
          "name": "accountA",
          "type": "address"
        },
        {
          "indexed": true,
          "internalType": "address",
          "name": "accountB",
          "type": "address"
        },
        {
          "indexed": true,
          "internalType": "uint256",
          "name": "betIndex",
          "type": "uint256"
        },
        {
          "indexed": false,
          "internalType": "uint256",
          "name": "betPriceA",
          "type": "uint256"
        },
        {
          "indexed": false,
          "internalType": "uint256",
          "name": "betPriceB",
          "type": "uint256"
        },
        {
          "indexed": false,
          "internalType": "uint256",
          "name": "contractAmount",
          "type": "uint256"
        }
      ],
      "name": "BetTaken",
      "type": "event"
    },
    {
      "anonymous": false,
      "inputs": [
        {
          "indexed": false,
          "internalType": "address",
          "name": "to",
          "type": "address"
        },
        {
          "indexed": false,
          "internalType": "uint256",
          "name": "amount",
          "type": "uint256"
        }
      ],
      "name": "FeeTransferred",
      "type": "event"
    },
    {
      "anonymous": false,
      "inputs": [
        {
          "indexed": false,
          "internalType": "address",
          "name": "from",
          "type": "address"
        },
        {
          "indexed": false,
          "internalType": "address",
          "name": "to1",
          "type": "address"
        },
        {
          "indexed": false,
          "internalType": "address",
          "name": "to2",
          "type": "address"
        },
        {
          "indexed": false,
          "internalType": "address",
          "name": "token",
          "type": "address"
        },
        {
          "indexed": false,
          "internalType": "uint256",
          "name": "amount1",
          "type": "uint256"
        },
        {
          "indexed": false,
          "internalType": "uint256",
          "name": "amount2",
          "type": "uint256"
        }
      ],
      "name": "StakeReturned",
      "type": "event"
    },
    {
      "anonymous": false,
      "inputs": [
        {
          "indexed": false,
          "internalType": "address",
          "name": "from",
          "type": "address"
        },
        {
          "indexed": false,
          "internalType": "address",
          "name": "to",
          "type": "address"
        },
        {
          "indexed": false,
          "internalType": "address",
          "name": "token",
          "type": "address"
        },
        {
          "indexed": false,
          "internalType": "uint256",
          "name": "amount",
          "type": "uint256"
        }
      ],
      "name": "StakeTransferred",
      "type": "event"
    },
    {
      "inputs": [],
      "name": "ONE",
      "outputs": [
        {
          "internalType": "uint16",
          "name": "",
          "type": "uint16"
        }
      ],
      "stateMutability": "view",
      "type": "function"
    },
    {
      "inputs": [],
      "name": "admin",
      "outputs": [
        {
          "internalType": "address",
          "name": "",
          "type": "address"
        }
      ],
      "stateMutability": "view",
      "type": "function"
    },
    {
      "inputs": [],
      "name": "betCounter",
      "outputs": [
        {
          "internalType": "uint256",
          "name": "_value",
          "type": "uint256"
        }
      ],
      "stateMutability": "view",
      "type": "function"
    },
    {
      "inputs": [
        {
          "internalType": "uint256",
          "name": "",
          "type": "uint256"
        }
      ],
      "name": "bets",
      "outputs": [
        {
          "internalType": "address",
          "name": "accountA",
          "type": "address"
        },
        {
          "internalType": "address",
          "name": "accountB",
          "type": "address"
        },
        {
          "internalType": "uint128",
          "name": "betPrice",
          "type": "uint128"
        },
        {
          "internalType": "uint128",
          "name": "contractAmount",
          "type": "uint128"
        }
      ],
      "stateMutability": "view",
      "type": "function"
    },
    {
      "inputs": [
        {
          "internalType": "address",
          "name": "",
          "type": "address"
        }
      ],
      "name": "betsIndex",
      "outputs": [
        {
          "internalType": "uint256",
          "name": "",
          "type": "uint256"
        }
      ],
      "stateMutability": "view",
      "type": "function"
    },
    {
      "inputs": [
        {
          "internalType": "uint256",
          "name": "_betIndex",
          "type": "uint256"
        }
      ],
      "name": "cancelBetA",
      "outputs": [],
      "stateMutability": "nonpayable",
      "type": "function"
    },
    {
      "inputs": [
        {
          "internalType": "uint256",
          "name": "_betIndex",
          "type": "uint256"
        }
      ],
      "name": "cancelBetB",
      "outputs": [],
      "stateMutability": "nonpayable",
      "type": "function"
    },
    {
      "inputs": [
        {
          "internalType": "uint128",
          "name": "_betPrice",
          "type": "uint128"
        },
        {
          "internalType": "uint128",
          "name": "_contractAmount",
          "type": "uint128"
        }
      ],
      "name": "createBetA",
      "outputs": [],
      "stateMutability": "nonpayable",
      "type": "function"
    },
    {
      "inputs": [
        {
          "internalType": "uint128",
          "name": "_betPrice",
          "type": "uint128"
        },
        {
          "internalType": "uint128",
          "name": "_contractAmount",
          "type": "uint128"
        }
      ],
      "name": "createBetB",
      "outputs": [],
      "stateMutability": "nonpayable",
      "type": "function"
    },
    {
      "inputs": [
        {
          "internalType": "uint256",
          "name": "_betIndex",
          "type": "uint256"
        }
      ],
      "name": "executeBet",
      "outputs": [],
      "stateMutability": "nonpayable",
      "type": "function"
    },
    {
      "inputs": [],
      "name": "executionFee",
      "outputs": [
        {
          "internalType": "uint16",
          "name": "",
          "type": "uint16"
        }
      ],
      "stateMutability": "view",
      "type": "function"
    },
    {
      "inputs": [],
      "name": "game",
      "outputs": [
        {
          "internalType": "contract GameOracle",
          "name": "",
          "type": "address"
        }
      ],
      "stateMutability": "view",
      "type": "function"
    },
    {
      "inputs": [],
      "name": "isMatchFinished",
      "outputs": [
        {
          "internalType": "bool",
          "name": "",
          "type": "bool"
        }
      ],
      "stateMutability": "view",
      "type": "function"
    },
    {
      "inputs": [],
      "name": "isMatchStarted",
      "outputs": [
        {
          "internalType": "bool",
          "name": "",
          "type": "bool"
        }
      ],
      "stateMutability": "view",
      "type": "function"
    },
    {
      "inputs": [],
      "name": "owner",
      "outputs": [
        {
          "internalType": "address",
          "name": "",
          "type": "address"
        }
      ],
      "stateMutability": "view",
      "type": "function"
    },
    {
      "inputs": [
        {
          "internalType": "address",
          "name": "newAdmin",
          "type": "address"
        }
      ],
      "name": "setAdmin",
      "outputs": [],
      "stateMutability": "nonpayable",
      "type": "function"
    },
    {
      "inputs": [
        {
          "internalType": "uint16",
          "name": "_newFee",
          "type": "uint16"
        }
      ],
      "name": "setExecutionFee",
      "outputs": [],
      "stateMutability": "nonpayable",
      "type": "function"
    },
    {
      "inputs": [
        {
          "internalType": "address",
          "name": "_gameOracleAddress",
          "type": "address"
        }
      ],
      "name": "setGameOracle",
      "outputs": [],
      "stateMutability": "nonpayable",
      "type": "function"
    },
    {
      "inputs": [
        {
          "internalType": "uint256",
          "name": "_betIndex",
          "type": "uint256"
        }
      ],
      "name": "takeBet",
      "outputs": [],
      "stateMutability": "nonpayable",
      "type": "function"
    },
    {
      "inputs": [],
      "name": "usdc",
      "outputs": [
        {
          "internalType": "address",
          "name": "",
          "type": "address"
        }
      ],
      "stateMutability": "view",
      "type": "function"
    }
  ],
  "bytecode": {
    "object": "0x60806040526004805461ffff60a01b1916600560a11b1790553480156200002557600080fd5b50604051620024b5380380620024b58339810160408190526200004891620000ba565b6001600081905580546001600160a01b039485166001600160a01b0319918216179091556002805493851693821693909317909255600480549190931690821617909155600380549091163317905562000104565b80516001600160a01b0381168114620000b557600080fd5b919050565b600080600060608486031215620000d057600080fd5b620000db846200009d565b9250620000eb602085016200009d565b9150620000fb604085016200009d565b90509250925092565b6123a180620001146000396000f3fe608060405234801561001057600080fd5b506004361061012c5760003560e01c8063704b6c02116100ad578063a5275ebd11610071578063a5275ebd14610305578063c2ee3a0814610318578063c3fe3e2814610320578063c511a07414610333578063f851a4401461034657600080fd5b8063704b6c02146102af5780638da5cb5b146102c25780638e9c9fa2146102d5578063a0934be8146102e8578063a416f5ab146102fb57600080fd5b80633e413bee116100f45780633e413bee1461022e57806340e9903b14610259578063482dd84b146102815780634e883e8c146102945780635ca6d7341461029c57600080fd5b80630753216d146101315780630f1f7d98146101465780631aae1db31461016357806322af00fa1461017657806336335bca14610200575b600080fd5b61014461013f366004612128565b610359565b005b61014e610379565b60405190151581526020015b60405180910390f35b61014461017136600461215b565b610516565b6101c661018436600461215b565b6006602052600090815260409020805460018201546002909201546001600160a01b0391821692909116906001600160801b0380821691600160801b90041684565b604080516001600160a01b0395861681529490931660208501526001600160801b039182169284019290925216606082015260800161015a565b61022061020e366004612174565b60076020526000908152604090205481565b60405190815260200161015a565b600254610241906001600160a01b031681565b6040516001600160a01b03909116815260200161015a565b60045461026e90600160a01b900461ffff1681565b60405161ffff909116815260200161015a565b61014461028f3660046121a4565b610a0d565b61014e610add565b6101446102aa36600461215b565b610f13565b6101446102bd366004612174565b6111a3565b600354610241906001600160a01b031681565b6101446102e336600461215b565b611216565b6101446102f6366004612128565b611448565b6005546102209081565b610144610313366004612174565b61145a565b61026e600a81565b600154610241906001600160a01b031681565b61014461034136600461215b565b6114cd565b600454610241906001600160a01b031681565b6103616118bd565b61036b8282611916565b6103756001600055565b5050565b60015460405163119017d560e11b8152602060048201526002602482015261119560f21b60448201526000916001600160a01b0316906323202faa90606401602060405180830381865afa1580156103d5573d6000803e3d6000fd5b505050506040513d601f19601f820116820180604052508101906103f991906121c8565b8061047f575060015460405163119017d560e11b815260206004820152600360248201526210515560ea1b60448201526001600160a01b03909116906323202faa90606401602060405180830381865afa15801561045b573d6000803e3d6000fd5b505050506040513d601f19601f8201168201806040525081019061047f91906121c8565b80610505575060015460405163119017d560e11b81526020600482015260036024820152622822a760e91b60448201526001600160a01b03909116906323202faa90606401602060405180830381865afa1580156104e1573d6000803e3d6000fd5b505050506040513d601f19601f8201168201806040525081019061050591906121c8565b156105105750600190565b50600090565b61051e6118bd565b806000036105475760405162461bcd60e51b815260040161053e906121ea565b60405180910390fd5b60015460408051631b6d7f2760e21b815290516000926001600160a01b031691636db5fc9c9160048083019260209291908290030181865afa158015610591573d6000803e3d6000fd5b505050506040513d601f19601f820116820180604052508101906105b59190612218565b90506000600160009054906101000a90046001600160a01b03166001600160a01b031663d38d96396040518163ffffffff1660e01b8152600401602060405180830381865afa15801561060c573d6000803e3d6000fd5b505050506040513d601f19601f820116820180604052508101906106309190612218565b600084815260066020908152604091829020825160808101845281546001600160a01b039081168083526001840154909116938201939093526002909101546001600160801b0380821694830194909452600160801b9004909216606083015291925090158015906106ae575060208101516001600160a01b031615155b6106fa5760405162461bcd60e51b815260206004820152601760248201527f42657420686173206e6f74206265656e2066696c6c6564000000000000000000604482015260640161053e565b6000670de0b6b3a764000082606001516001600160801b031661071d9190612247565b90508284111561081f5781516001600160a01b031633146107795760405162461bcd60e51b81526020600482015260166024820152752cb7ba9030b932903737ba103a3432903bb4b73732b960511b604482015260640161053e565b600061078482611a7d565b61078e908361225e565b905061079e836000015182611b14565b6020830151835160408501516001600160a01b0392831692909116907f0b4b0cc78641a4e7ec1c875b6f31816ea43a0249783579b012697a629168d92c906107e781600a612271565b606080890151604080516001600160801b0395861681529385166020850152931692820192909252015b60405180910390a3506109cf565b838311156109335781602001516001600160a01b0316336001600160a01b0316146108855760405162461bcd60e51b81526020600482015260166024820152752cb7ba9030b932903737ba103a3432903bb4b73732b960511b604482015260640161053e565b600061089082611a7d565b61089a908361225e565b90506108aa836020015182611b14565b82600001516001600160a01b031683602001516001600160a01b03167f0b4b0cc78641a4e7ec1c875b6f31816ea43a0249783579b012697a629168d92c8560400151600a61ffff166108fc9190612271565b86604001518760600151604051610811939291906001600160801b0393841681529183166020830152909116604082015260600190565b6109cf8260000151836020015161097f85606001516001600160801b031661097967016345785d8a000088604001516001600160801b0316611b8290919063ffffffff16565b90611b82565b6109ca86606001516001600160801b03166109796109bb67016345785d8a00008a604001516001600160801b0316611b8290919063ffffffff16565b670de0b6b3a764000090611b97565b611ba3565b505050600082815260066020526040812080546001600160a01b0319908116825560018201805490911690556002015550610a0a6001600055565b50565b6004546001600160a01b03163314610a5e5760405162461bcd60e51b81526020600482015260146024820152732337b93134b23232b716103737ba1030b236b4b760611b604482015260640161053e565b60648161ffff1611158015610a78575060018161ffff1610155b610abb5760405162461bcd60e51b81526020600482015260146024820152734e657720666565206f7574206f662072616e676560601b604482015260640161053e565b6004805461ffff909216600160a01b0261ffff60a01b19909216919091179055565b60015460405163119017d560e11b815260206004820152600360248201526215109160ea1b60448201526000916001600160a01b0316906323202faa90606401602060405180830381865afa158015610b3a573d6000803e3d6000fd5b505050506040513d601f19601f82011682018060405250810190610b5e91906121c8565b80610be3575060015460405163119017d560e11b81526020600482015260026024820152614e5360f01b60448201526001600160a01b03909116906323202faa90606401602060405180830381865afa158015610bbf573d6000803e3d6000fd5b505050506040513d601f19601f82011682018060405250810190610be391906121c8565b80610c69575060015460405163119017d560e11b81526020600482015260036024820152621414d560ea1b60448201526001600160a01b03909116906323202faa90606401602060405180830381865afa158015610c45573d6000803e3d6000fd5b505050506040513d601f19601f82011682018060405250810190610c6991906121c8565b80610cf7575060015460405163119017d560e11b81526001600160a01b03909116906323202faa90610cb69060040160208082526004908201526343414e4360e01b604082015260600190565b602060405180830381865afa158015610cd3573d6000803e3d6000fd5b505050506040513d601f19601f82011682018060405250810190610cf791906121c8565b80610d7d575060015460405163119017d560e11b815260206004820152600360248201526210509160ea1b60448201526001600160a01b03909116906323202faa90606401602060405180830381865afa158015610d59573d6000803e3d6000fd5b505050506040513d601f19601f82011682018060405250810190610d7d91906121c8565b80610e03575060015460405163119017d560e11b81526020600482015260036024820152621055d160ea1b60448201526001600160a01b03909116906323202faa90606401602060405180830381865afa158015610ddf573d6000803e3d6000fd5b505050506040513d601f19601f82011682018060405250810190610e0391906121c8565b80610e88575060015460405163119017d560e11b8152602060048201526002602482015261574f60f01b60448201526001600160a01b03909116906323202faa90606401602060405180830381865afa158015610e64573d6000803e3d6000fd5b505050506040513d601f19601f82011682018060405250810190610e8891906121c8565b80610f02575060015460405163119017d560e11b815260206004820152600060248201526001600160a01b03909116906323202faa90604401602060405180830381865afa158015610ede573d6000803e3d6000fd5b505050506040513d601f19601f82011682018060405250810190610f0291906121c8565b15610f0d5750600090565b50600190565b610f1b6118bd565b33151580610f2857508015155b610f445760405162461bcd60e51b815260040161053e906121ea565b600081815260066020908152604091829020825160808101845281546001600160a01b039081168083526001840154909116938201939093526002909101546001600160801b0380821694830194909452600160801b900490921660608301523314610fe35760405162461bcd60e51b815260206004820152600e60248201526d2737ba103cb7bab91037b93232b960911b604482015260640161053e565b600081606001518260400151610ff99190612298565b6001600160801b03169050600061100e610add565b8351901591506000906001600160a01b03161580159061103a575060208401516001600160a01b031615155b60208501519091506001600160a01b03161582156110f15781156110b45760008681526006602052604080822080546001600160a01b031990811682556001820180549091169055600201919091558501516110a59061109b90600a612271565b8660600151611c39565b6110af3385611b14565b611143565b80156110af57600086815260066020526040812080546001600160a01b031990811682556001820180549091169055600201556110af3385611b14565b60405162461bcd60e51b815260206004820152602160248201527f47616d6520737461727465642c2063616e6e6f742063616e63656c206f7264656044820152603960f91b606482015260840161053e565b604080860151606087015182516001600160801b03928316815291166020820152879133917fbef64ee3742d6cec6213475da217b25d55f7880356e54cfecc6b0992b1ca9d4f91015b60405180910390a35050505050610a0a6001600055565b6003546001600160a01b031633146111f45760405162461bcd60e51b81526020600482015260146024820152732337b93134b23232b716103737ba1037bbb732b960611b604482015260640161053e565b600480546001600160a01b0319166001600160a01b0392909216919091179055565b61121e6118bd565b3315158061122b57508015155b6112475760405162461bcd60e51b815260040161053e906121ea565b600081815260066020908152604091829020825160808101845281546001600160a01b0390811682526001830154169281018390526002909101546001600160801b0380821694830194909452600160801b9004909216606083015233146112e25760405162461bcd60e51b815260206004820152600e60248201526d2737ba103cb7bab91037b93232b960911b604482015260640161053e565b6000816060015182604001516112f89190612298565b6001600160801b03169050600061130d610add565b8351901591506000906001600160a01b031615801590611339575060208401516001600160a01b031615155b84519091506001600160a01b03161582156110f15781156113b05760008681526006602052604080822080546001600160a01b031990811682556001820180549091169055600201919091558501516113a19061139790600a612271565b8660600151611916565b6113ab3385611b14565b6113ed565b80156113ab57600086815260066020526040812080546001600160a01b031990811682556001820180549091169055600201556113ab3385611b14565b6040850151869033907fbef64ee3742d6cec6213475da217b25d55f7880356e54cfecc6b0992b1ca9d4f9061142390600a612271565b6060890151604080516001600160801b0393841681529290911660208301520161118c565b6114506118bd565b61036b8282611c39565b6004546001600160a01b031633146114ab5760405162461bcd60e51b81526020600482015260146024820152732337b93134b23232b716103737ba1030b236b4b760611b604482015260640161053e565b600180546001600160a01b0319166001600160a01b0392909216919091179055565b6114d56118bd565b600081815260066020908152604091829020825160808101845281546001600160a01b0390811682526001830154169281018390526002909101546001600160801b0380821694830194909452600160801b900490921660608301526116c7576040805160808101825282516001600160a01b03168152336020808301829052848401516001600160801b039081168486015260608087015190911690840152600091825260079052918220805491926001926115939084906122c3565b90915550506000838152600660209081526040808320845181546001600160a01b039182166001600160a01b031991821617835593860151600183018054919092169416939093179092558084015160608501516001600160801b03908116600160801b0291161760029092019190915583015161161290600a612271565b6001600160801b03169050600061164b67016345785d8a000061097986606001516001600160801b031685611b8290919063ffffffff16565b905061165681611d98565b835160408086015160608088015183516001600160801b03938416815260208101889052921692820192909252879233926001600160a01b03909116917f81dc33ad3b88be499aa980c44098ab2e3c48ca3b69d688f17dccc95a54fae39991015b60405180910390a45050506118b2565b80516001600160a01b031661186a5760408051608081018252338082526020848101516001600160a01b031681840152848401516001600160801b039081168486015260608087015190911690840152600091825260079052918220805491926001926117359084906122c3565b90915550506000838152600660209081526040808320845181546001600160a01b039182166001600160a01b031991821617835593860151600183018054919092169416939093179092558084015160608501516001600160801b03908116600160801b029116176002909201919091558301516117b490600a612271565b6001600160801b0316905060006117ed67016345785d8a000061097986606001516001600160801b031685611b8290919063ffffffff16565b90506117f881611d98565b8484602001516001600160a01b0316336001600160a01b03167f81dc33ad3b88be499aa980c44098ab2e3c48ca3b69d688f17dccc95a54fae39987604001518689606001516040516116b7939291906001600160801b0393841681526020810192909252909116604082015260600190565b60405162461bcd60e51b815260206004820152601b60248201527f4265742068617320616c7265616479206265656e2066696c6c65640000000000604482015260640161053e565b50610a0a6001600055565b60026000540361190f5760405162461bcd60e51b815260206004820152601f60248201527f5265656e7472616e637947756172643a207265656e7472616e742063616c6c00604482015260640161053e565b6002600055565b60408051608081018252338152600060208201526001600160801b03808516928201929092529082166060820152611952600580546001019055565b600061195d60055490565b6000818152600660209081526040808320865181546001600160a01b03199081166001600160a01b039283161783559388015160018301805490951691161790925585015160608601516001600160801b03808316600160801b918316919091021760029093019290925592935090916119d79190612298565b6119e99067016345785d8a0000612298565b6001600160801b031690506119fd81611d98565b6040830151600090611a1090600a612271565b60608581015160408051600081526001600160801b038b8116602083015294851691810182905293909116918301919091529150839033907f8f7b122efd596355690f78faec4f1df9372d83757de2fb12046f3b00e14564e89060800160405180910390a3505050505050565b600454600090819061271090611a9e90600160a01b900461ffff1685612247565b611aa891906122d6565b600354600254919250611ac8916001600160a01b03908116911683611e04565b600354604080516001600160a01b039092168252602082018390527f34e8a84e537ed93d93ddf39a78816dcbc74df8397c635838b8cc973d4fa943f8910160405180910390a192915050565b600254611b2b906001600160a01b03168383611e04565b600254604080513081526001600160a01b0385811660208301529092168282015260608201839052517fd1412cf3194637c19cb0b71bc683c851c8d43dd6e516f26930a4737572e6434e9181900360800190a15050565b6000611b8e8284612247565b90505b92915050565b6000611b8e828461225e565b600254611bba906001600160a01b03168584611e04565b600254611bd1906001600160a01b03168483611e04565b600254604080513081526001600160a01b0387811660208301528681168284015290921660608301526080820184905260a08201839052517fb1df176c62b6f0a8f75c3660bf98e2991545ba0c95991cc413819198e1556b2a9181900360c00190a150505050565b604080516080810182526000808252336020830152918101611c5c85600a612271565b6001600160801b03168152602001836001600160801b03168152509050611c87600580546001019055565b6000611c9260055490565b6000818152600660209081526040808320865181546001600160a01b03199081166001600160a01b039283161783559388015160018301805490951691161790925585015160608601516001600160801b03808316600160801b91831691909102176002909301929092559293509091611d0c9190612298565b611d1e9067016345785d8a0000612298565b6001600160801b03169050611d3281611d98565b6040838101516060808601518351600081526001600160801b039384166020820152898416818601529216908201529051839133917f2e58e127a559ad81c5410b4c23396bbe7e07b75a9f09f0c6b15899bb093de5819181900360800190a35050505050565b600254611db0906001600160a01b0316333084611e6c565b600254604080513381523060208201526001600160a01b039092168282015260608201839052517fd1412cf3194637c19cb0b71bc683c851c8d43dd6e516f26930a4737572e6434e9181900360800190a150565b6040516001600160a01b038316602482015260448101829052611e6790849063a9059cbb60e01b906064015b60408051601f198184030181529190526020810180516001600160e01b03166001600160e01b031990931692909217909152611eaa565b505050565b6040516001600160a01b0380851660248301528316604482015260648101829052611ea49085906323b872dd60e01b90608401611e30565b50505050565b6000611eff826040518060400160405280602081526020017f5361666545524332303a206c6f772d6c6576656c2063616c6c206661696c6564815250856001600160a01b0316611f7c9092919063ffffffff16565b805190915015611e675780806020019051810190611f1d91906121c8565b611e675760405162461bcd60e51b815260206004820152602a60248201527f5361666545524332303a204552433230206f7065726174696f6e20646964206e6044820152691bdd081cdd58d8d9595960b21b606482015260840161053e565b6060611f8b8484600085611f93565b949350505050565b606082471015611ff45760405162461bcd60e51b815260206004820152602660248201527f416464726573733a20696e73756666696369656e742062616c616e636520666f6044820152651c8818d85b1b60d21b606482015260840161053e565b600080866001600160a01b03168587604051612010919061231c565b60006040518083038185875af1925050503d806000811461204d576040519150601f19603f3d011682016040523d82523d6000602084013e612052565b606091505b50915091506120638783838761206e565b979650505050505050565b606083156120dd5782516000036120d6576001600160a01b0385163b6120d65760405162461bcd60e51b815260206004820152601d60248201527f416464726573733a2063616c6c20746f206e6f6e2d636f6e7472616374000000604482015260640161053e565b5081611f8b565b611f8b83838151156120f25781518083602001fd5b8060405162461bcd60e51b815260040161053e9190612338565b80356001600160801b038116811461212357600080fd5b919050565b6000806040838503121561213b57600080fd5b6121448361210c565b91506121526020840161210c565b90509250929050565b60006020828403121561216d57600080fd5b5035919050565b60006020828403121561218657600080fd5b81356001600160a01b038116811461219d57600080fd5b9392505050565b6000602082840312156121b657600080fd5b813561ffff8116811461219d57600080fd5b6000602082840312156121da57600080fd5b8151801515811461219d57600080fd5b60208082526014908201527313dc99195c88191bd95cc81b9bdd08195e1a5cdd60621b604082015260600190565b60006020828403121561222a57600080fd5b5051919050565b634e487b7160e01b600052601160045260246000fd5b8082028115828204841417611b9157611b91612231565b81810381811115611b9157611b91612231565b6001600160801b0382811682821603908082111561229157612291612231565b5092915050565b6001600160801b038181168382160280821691908281146122bb576122bb612231565b505092915050565b80820180821115611b9157611b91612231565b6000826122f357634e487b7160e01b600052601260045260246000fd5b500490565b60005b838110156123135781810151838201526020016122fb565b50506000910152565b6000825161232e8184602087016122f8565b9190910192915050565b60208152600082518060208401526123578160408501602087016122f8565b601f01601f1916919091016040019291505056fea26469706673582212204cd1b03dfdeba2358b8ac80df9c7902f3916e54d19cb5016eb215ab65f1900da64736f6c63430008110033",
    "linkReferences": {}
  },
  "methodIdentifiers": {
    "ONE()": "c2ee3a08",
    "admin()": "f851a440",
    "betCounter()": "a416f5ab",
    "bets(uint256)": "22af00fa",
    "betsIndex(address)": "36335bca",
    "cancelBetA(uint256)": "5ca6d734",
    "cancelBetB(uint256)": "8e9c9fa2",
    "createBetA(uint128,uint128)": "0753216d",
    "createBetB(uint128,uint128)": "a0934be8",
    "executeBet(uint256)": "1aae1db3",
    "executionFee()": "40e9903b",
    "game()": "c3fe3e28",
    "isMatchFinished()": "0f1f7d98",
    "isMatchStarted()": "4e883e8c",
    "owner()": "8da5cb5b",
    "setAdmin(address)": "704b6c02",
    "setExecutionFee(uint16)": "482dd84b",
    "setGameOracle(address)": "a5275ebd",
    "takeBet(uint256)": "c511a074",
    "usdc()": "3e413bee"
  },
  "id": 1
}