{
  "abi": [
    {
      "inputs": [
        {
          "internalType": "string",
          "name": "_country",
          "type": "string"
        },
        {
          "internalType": "string",
          "name": "_league",
          "type": "string"
        },
        {
          "internalType": "address",
          "name": "_gameOracleAddress",
          "type": "address"
        },
        {
          "internalType": "address",
          "name": "_usdc",
          "type": "address"
        },
        {
          "internalType": "address",
          "name": "_admin",
          "type": "address"
        }
      ],
      "stateMutability": "nonpayable",
      "type": "constructor"
    },
    {
      "inputs": [],
      "name": "BetAlreadyFilled",
      "type": "error"
    },
    {
      "inputs": [],
      "name": "FeeOutOfRange",
      "type": "error"
    },
    {
      "inputs": [],
      "name": "GameNotFinished",
      "type": "error"
    },
    {
      "inputs": [],
      "name": "GameStarted",
      "type": "error"
    },
    {
      "inputs": [],
      "name": "NonExistentOrder",
      "type": "error"
    },
    {
      "inputs": [],
      "name": "NotWinner",
      "type": "error"
    },
    {
      "inputs": [],
      "name": "NotYourOrder",
      "type": "error"
    },
    {
      "inputs": [],
      "name": "Unauthorized",
      "type": "error"
    },
    {
      "inputs": [],
      "name": "UnfilledBet",
      "type": "error"
    },
    {
      "anonymous": false,
      "inputs": [
        {
          "indexed": true,
          "internalType": "address",
          "name": "accountA",
          "type": "address"
        },
        {
          "indexed": false,
          "internalType": "address",
          "name": "accountB",
          "type": "address"
        },
        {
          "indexed": true,
          "internalType": "uint256",
          "name": "betIndex",
          "type": "uint256"
        },
        {
          "indexed": false,
          "internalType": "uint256",
          "name": "betPriceA",
          "type": "uint256"
        },
        {
          "indexed": false,
          "internalType": "uint256",
          "name": "betPriceB",
          "type": "uint256"
        },
        {
          "indexed": false,
          "internalType": "uint256",
          "name": "contractAmount",
          "type": "uint256"
        }
      ],
      "name": "BetACreated",
      "type": "event"
    },
    {
      "anonymous": false,
      "inputs": [
        {
          "indexed": false,
          "internalType": "address",
          "name": "accountA",
          "type": "address"
        },
        {
          "indexed": true,
          "internalType": "address",
          "name": "accountB",
          "type": "address"
        },
        {
          "indexed": true,
          "internalType": "uint256",
          "name": "betIndex",
          "type": "uint256"
        },
        {
          "indexed": false,
          "internalType": "uint256",
          "name": "betPriceA",
          "type": "uint256"
        },
        {
          "indexed": false,
          "internalType": "uint256",
          "name": "betPriceB",
          "type": "uint256"
        },
        {
          "indexed": false,
          "internalType": "uint256",
          "name": "contractAmount",
          "type": "uint256"
        }
      ],
      "name": "BetBCreated",
      "type": "event"
    },
    {
      "anonymous": false,
      "inputs": [
        {
          "indexed": true,
          "internalType": "address",
          "name": "account",
          "type": "address"
        },
        {
          "indexed": true,
          "internalType": "uint256",
          "name": "betIndex",
          "type": "uint256"
        },
        {
          "indexed": false,
          "internalType": "uint256",
          "name": "betPrice",
          "type": "uint256"
        },
        {
          "indexed": false,
          "internalType": "uint256",
          "name": "contractAmount",
          "type": "uint256"
        }
      ],
      "name": "BetCanceled",
      "type": "event"
    },
    {
      "anonymous": false,
      "inputs": [
        {
          "indexed": true,
          "internalType": "address",
          "name": "winner",
          "type": "address"
        },
        {
          "indexed": true,
          "internalType": "address",
          "name": "loser",
          "type": "address"
        },
        {
          "indexed": false,
          "internalType": "uint256",
          "name": "betPriceWinner",
          "type": "uint256"
        },
        {
          "indexed": false,
          "internalType": "uint256",
          "name": "betPriceLoser",
          "type": "uint256"
        },
        {
          "indexed": false,
          "internalType": "uint256",
          "name": "contractAmount",
          "type": "uint256"
        }
      ],
      "name": "BetExecuted",
      "type": "event"
    },
    {
      "anonymous": false,
      "inputs": [
        {
          "indexed": true,
          "internalType": "address",
          "name": "accountA",
          "type": "address"
        },
        {
          "indexed": true,
          "internalType": "address",
          "name": "accountB",
          "type": "address"
        },
        {
          "indexed": true,
          "internalType": "uint256",
          "name": "betIndex",
          "type": "uint256"
        },
        {
          "indexed": false,
          "internalType": "uint256",
          "name": "betPriceA",
          "type": "uint256"
        },
        {
          "indexed": false,
          "internalType": "uint256",
          "name": "betPriceB",
          "type": "uint256"
        },
        {
          "indexed": false,
          "internalType": "uint256",
          "name": "contractAmount",
          "type": "uint256"
        }
      ],
      "name": "BetTaken",
      "type": "event"
    },
    {
      "anonymous": false,
      "inputs": [
        {
          "indexed": false,
          "internalType": "address",
          "name": "to",
          "type": "address"
        },
        {
          "indexed": false,
          "internalType": "uint256",
          "name": "amount",
          "type": "uint256"
        }
      ],
      "name": "FeeTransferred",
      "type": "event"
    },
    {
      "anonymous": false,
      "inputs": [
        {
          "indexed": false,
          "internalType": "address",
          "name": "from",
          "type": "address"
        },
        {
          "indexed": false,
          "internalType": "address",
          "name": "to1",
          "type": "address"
        },
        {
          "indexed": false,
          "internalType": "address",
          "name": "to2",
          "type": "address"
        },
        {
          "indexed": false,
          "internalType": "address",
          "name": "token",
          "type": "address"
        },
        {
          "indexed": false,
          "internalType": "uint256",
          "name": "amount1",
          "type": "uint256"
        },
        {
          "indexed": false,
          "internalType": "uint256",
          "name": "amount2",
          "type": "uint256"
        }
      ],
      "name": "StakeReturned",
      "type": "event"
    },
    {
      "anonymous": false,
      "inputs": [
        {
          "indexed": false,
          "internalType": "address",
          "name": "from",
          "type": "address"
        },
        {
          "indexed": false,
          "internalType": "address",
          "name": "to",
          "type": "address"
        },
        {
          "indexed": false,
          "internalType": "address",
          "name": "token",
          "type": "address"
        },
        {
          "indexed": false,
          "internalType": "uint256",
          "name": "amount",
          "type": "uint256"
        }
      ],
      "name": "StakeTransferred",
      "type": "event"
    },
    {
      "inputs": [],
      "name": "ONE",
      "outputs": [
        {
          "internalType": "uint16",
          "name": "",
          "type": "uint16"
        }
      ],
      "stateMutability": "view",
      "type": "function"
    },
    {
      "inputs": [],
      "name": "admin",
      "outputs": [
        {
          "internalType": "address",
          "name": "",
          "type": "address"
        }
      ],
      "stateMutability": "view",
      "type": "function"
    },
    {
      "inputs": [],
      "name": "betCounter",
      "outputs": [
        {
          "internalType": "uint256",
          "name": "_value",
          "type": "uint256"
        }
      ],
      "stateMutability": "view",
      "type": "function"
    },
    {
      "inputs": [
        {
          "internalType": "uint256",
          "name": "",
          "type": "uint256"
        }
      ],
      "name": "bets",
      "outputs": [
        {
          "internalType": "address",
          "name": "accountA",
          "type": "address"
        },
        {
          "internalType": "address",
          "name": "accountB",
          "type": "address"
        },
        {
          "internalType": "uint128",
          "name": "betPrice",
          "type": "uint128"
        },
        {
          "internalType": "uint128",
          "name": "contractAmount",
          "type": "uint128"
        }
      ],
      "stateMutability": "view",
      "type": "function"
    },
    {
      "inputs": [
        {
          "internalType": "uint256",
          "name": "_betIndex",
          "type": "uint256"
        }
      ],
      "name": "cancelBetA",
      "outputs": [],
      "stateMutability": "nonpayable",
      "type": "function"
    },
    {
      "inputs": [
        {
          "internalType": "uint256",
          "name": "_betIndex",
          "type": "uint256"
        }
      ],
      "name": "cancelBetB",
      "outputs": [],
      "stateMutability": "nonpayable",
      "type": "function"
    },
    {
      "inputs": [],
      "name": "country",
      "outputs": [
        {
          "internalType": "string",
          "name": "",
          "type": "string"
        }
      ],
      "stateMutability": "view",
      "type": "function"
    },
    {
      "inputs": [
        {
          "internalType": "uint128",
          "name": "_betPrice",
          "type": "uint128"
        },
        {
          "internalType": "uint128",
          "name": "_contractAmount",
          "type": "uint128"
        }
      ],
      "name": "createBetA",
      "outputs": [],
      "stateMutability": "nonpayable",
      "type": "function"
    },
    {
      "inputs": [
        {
          "internalType": "uint128",
          "name": "_betPrice",
          "type": "uint128"
        },
        {
          "internalType": "uint128",
          "name": "_contractAmount",
          "type": "uint128"
        }
      ],
      "name": "createBetB",
      "outputs": [],
      "stateMutability": "nonpayable",
      "type": "function"
    },
    {
      "inputs": [
        {
          "internalType": "uint256",
          "name": "_betIndex",
          "type": "uint256"
        }
      ],
      "name": "executeBet",
      "outputs": [],
      "stateMutability": "nonpayable",
      "type": "function"
    },
    {
      "inputs": [],
      "name": "executionFee",
      "outputs": [
        {
          "internalType": "uint16",
          "name": "",
          "type": "uint16"
        }
      ],
      "stateMutability": "view",
      "type": "function"
    },
    {
      "inputs": [],
      "name": "game",
      "outputs": [
        {
          "internalType": "string",
          "name": "gameId",
          "type": "string"
        },
        {
          "internalType": "uint16",
          "name": "homeTeam",
          "type": "uint16"
        },
        {
          "internalType": "uint16",
          "name": "awayTeam",
          "type": "uint16"
        },
        {
          "internalType": "uint256",
          "name": "homeScore",
          "type": "uint256"
        },
        {
          "internalType": "uint256",
          "name": "awayScore",
          "type": "uint256"
        },
        {
          "internalType": "string",
          "name": "status",
          "type": "string"
        }
      ],
      "stateMutability": "view",
      "type": "function"
    },
    {
      "inputs": [],
      "name": "isMatchFinished",
      "outputs": [
        {
          "internalType": "bool",
          "name": "",
          "type": "bool"
        }
      ],
      "stateMutability": "view",
      "type": "function"
    },
    {
      "inputs": [],
      "name": "isMatchStarted",
      "outputs": [
        {
          "internalType": "bool",
          "name": "",
          "type": "bool"
        }
      ],
      "stateMutability": "view",
      "type": "function"
    },
    {
      "inputs": [],
      "name": "league",
      "outputs": [
        {
          "internalType": "string",
          "name": "",
          "type": "string"
        }
      ],
      "stateMutability": "view",
      "type": "function"
    },
    {
      "inputs": [],
      "name": "oracle",
      "outputs": [
        {
          "internalType": "contract GameOracle",
          "name": "",
          "type": "address"
        }
      ],
      "stateMutability": "view",
      "type": "function"
    },
    {
      "inputs": [],
      "name": "owner",
      "outputs": [
        {
          "internalType": "address",
          "name": "",
          "type": "address"
        }
      ],
      "stateMutability": "view",
      "type": "function"
    },
    {
      "inputs": [],
      "name": "season",
      "outputs": [
        {
          "internalType": "string",
          "name": "",
          "type": "string"
        }
      ],
      "stateMutability": "view",
      "type": "function"
    },
    {
      "inputs": [
        {
          "internalType": "address",
          "name": "newAdmin",
          "type": "address"
        }
      ],
      "name": "setAdmin",
      "outputs": [],
      "stateMutability": "nonpayable",
      "type": "function"
    },
    {
      "inputs": [
        {
          "internalType": "uint16",
          "name": "_newFee",
          "type": "uint16"
        }
      ],
      "name": "setExecutionFee",
      "outputs": [],
      "stateMutability": "nonpayable",
      "type": "function"
    },
    {
      "inputs": [
        {
          "internalType": "string",
          "name": "_gameId",
          "type": "string"
        },
        {
          "internalType": "uint16",
          "name": "_homeTeam",
          "type": "uint16"
        },
        {
          "internalType": "uint16",
          "name": "_awayTeam",
          "type": "uint16"
        }
      ],
      "name": "setGame",
      "outputs": [],
      "stateMutability": "nonpayable",
      "type": "function"
    },
    {
      "inputs": [
        {
          "internalType": "address",
          "name": "_gameOracleAddress",
          "type": "address"
        }
      ],
      "name": "setGameOracle",
      "outputs": [],
      "stateMutability": "nonpayable",
      "type": "function"
    },
    {
      "inputs": [
        {
          "internalType": "uint256",
          "name": "_betIndex",
          "type": "uint256"
        }
      ],
      "name": "takeBet",
      "outputs": [],
      "stateMutability": "nonpayable",
      "type": "function"
    },
    {
      "inputs": [
        {
          "internalType": "string",
          "name": "_gameId",
          "type": "string"
        }
      ],
      "name": "updateOracle",
      "outputs": [],
      "stateMutability": "nonpayable",
      "type": "function"
    },
    {
      "inputs": [
        {
          "internalType": "string",
          "name": "_newSeason",
          "type": "string"
        }
      ],
      "name": "updateSeason",
      "outputs": [],
      "stateMutability": "nonpayable",
      "type": "function"
    },
    {
      "inputs": [],
      "name": "usdc",
      "outputs": [
        {
          "internalType": "address",
          "name": "",
          "type": "address"
        }
      ],
      "stateMutability": "view",
      "type": "function"
    }
  ],
  "bytecode": {
    "object": "0x6080604052600d805461ffff1916600a1790553480156200001f57600080fd5b5060405162002fac38038062002fac83398101604081905262000042916200019a565b6001600081905580546001600160a01b038086166001600160a01b0319928316179092556007805485841690831617905560098054928416928216929092179091556008805490911633179055600a6200009d8682620002cb565b50600b620000ac8582620002cb565b50505050505062000397565b634e487b7160e01b600052604160045260246000fd5b600082601f830112620000e057600080fd5b81516001600160401b0380821115620000fd57620000fd620000b8565b604051601f8301601f19908116603f01168101908282118183101715620001285762000128620000b8565b816040528381526020925086838588010111156200014557600080fd5b600091505b838210156200016957858201830151818301840152908201906200014a565b600093810190920192909252949350505050565b80516001600160a01b03811681146200019557600080fd5b919050565b600080600080600060a08688031215620001b357600080fd5b85516001600160401b0380821115620001cb57600080fd5b620001d989838a01620000ce565b96506020880151915080821115620001f057600080fd5b50620001ff88828901620000ce565b94505062000210604087016200017d565b925062000220606087016200017d565b915062000230608087016200017d565b90509295509295909350565b600181811c908216806200025157607f821691505b6020821081036200027257634e487b7160e01b600052602260045260246000fd5b50919050565b601f821115620002c657600081815260208120601f850160051c81016020861015620002a15750805b601f850160051c820191505b81811015620002c257828155600101620002ad565b5050505b505050565b81516001600160401b03811115620002e757620002e7620000b8565b620002ff81620002f884546200023c565b8462000278565b602080601f8311600181146200033757600084156200031e5750858301515b600019600386901b1c1916600185901b178555620002c2565b600085815260208120601f198616915b82811015620003685788860151825594840194600190910190840162000347565b5085821015620003875787850151600019600388901b60f8161c191681555b5050505050600190811b01905550565b612c0580620003a76000396000f3fe608060405234801561001057600080fd5b506004361061018e5760003560e01c80638e9c9fa2116100de578063c3fe3e2811610097578063d8b0b49911610071578063d8b0b499146103d6578063d9b29297146103de578063e5a37200146103e6578063f851a440146103f957600080fd5b8063c3fe3e2814610394578063c50b0fb0146103ae578063c511a074146103c357600080fd5b80638e9c9fa21461032857806399b2e74e1461033b578063a0934be81461034e578063a416f5ab14610361578063a5275ebd14610379578063c2ee3a081461038c57600080fd5b806340e9903b1161014b5780635ca6d734116101255780635ca6d734146102dc578063704b6c02146102ef5780637dc0d1d0146103025780638da5cb5b1461031557600080fd5b806340e9903b146102a0578063482dd84b146102c15780634e883e8c146102d457600080fd5b80630753216d146101935780630f1f7d98146101a85780631aae1db3146101c557806322af00fa146101d857806330d8cf1b146102625780633e413bee14610275575b600080fd5b6101a66101a1366004612630565b61040c565b005b6101b0610452565b60405190151581526020015b60405180910390f35b6101a66101d3366004612663565b6105ef565b6102286101e6366004612663565b600f602052600090815260409020805460018201546002909201546001600160a01b0391821692909116906001600160801b0380821691600160801b90041684565b604080516001600160a01b0395861681529490931660208501526001600160801b03918216928401929092521660608201526080016101bc565b6101a6610270366004612741565b610996565b600754610288906001600160a01b031681565b6040516001600160a01b0390911681526020016101bc565b600d546102ae9061ffff1681565b60405161ffff90911681526020016101bc565b6101a66102cf366004612788565b610ccb565b6101b0610d42565b6101a66102ea366004612663565b611178565b6101a66102fd3660046127aa565b6113af565b600154610288906001600160a01b031681565b600854610288906001600160a01b031681565b6101a6610336366004612663565b6113fb565b6101a66103493660046127d3565b61160d565b6101a661035c366004612630565b6117c8565b600e5461036b9081565b6040519081526020016101bc565b6101a66103873660046127aa565b611800565b6102ae600a81565b61039c61184c565b6040516101bc96959493929190612881565b6103b6611990565b6040516101bc91906128d3565b6101a66103d1366004612663565b611a1e565b6103b6611d9c565b6103b6611da9565b6101a66103f4366004612741565b611db6565b600954610288906001600160a01b031681565b610414611dec565b61041c610d42565b1561043a57604051631d8bc98160e21b815260040160405180910390fd5b6104448282611e4a565b61044e6001600055565b5050565b60015460405163119017d560e11b8152602060048201526002602482015261119560f21b60448201526000916001600160a01b0316906323202faa90606401602060405180830381865afa1580156104ae573d6000803e3d6000fd5b505050506040513d601f19601f820116820180604052508101906104d291906128e6565b80610558575060015460405163119017d560e11b815260206004820152600360248201526210515560ea1b60448201526001600160a01b03909116906323202faa90606401602060405180830381865afa158015610534573d6000803e3d6000fd5b505050506040513d601f19601f8201168201806040525081019061055891906128e6565b806105de575060015460405163119017d560e11b81526020600482015260036024820152622822a760e91b60448201526001600160a01b03909116906323202faa90606401602060405180830381865afa1580156105ba573d6000803e3d6000fd5b505050506040513d601f19601f820116820180604052508101906105de91906128e6565b156105e95750600190565b50600090565b6105f7611dec565b6105ff610452565b61061c5760405163b7c3a5b360e01b815260040160405180910390fd5b8060000361063d576040516363803b8760e01b815260040160405180910390fd5b6000818152600f6020908152604091829020825160808101845281546001600160a01b039081168083526001840154909116938201939093526002909101546001600160801b0380821694830194909452600160801b9004909216606083015215806106b4575060208101516001600160a01b0316155b156106d2576040516340fd62d160e11b815260040160405180910390fd5b6000670de0b6b3a764000082606001516001600160801b03166106f5919061291e565b60055460045491925010156107d45781516001600160a01b0316331461072e576040516330c6392160e11b815260040160405180910390fd5b600061073982611fb1565b610743908361293b565b9050610753836000015182612041565b6020830151835160408501516001600160a01b0392831692909116907f0b4b0cc78641a4e7ec1c875b6f31816ea43a0249783579b012697a629168d92c9061079c81600a61294e565b606080890151604080516001600160801b0395861681529385166020850152931692820192909252015b60405180910390a35061095a565b60045460055411156108c45781602001516001600160a01b0316336001600160a01b031614610816576040516330c6392160e11b815260040160405180910390fd5b600061082182611fb1565b61082b908361293b565b905061083b836020015182612041565b82600001516001600160a01b031683602001516001600160a01b03167f0b4b0cc78641a4e7ec1c875b6f31816ea43a0249783579b012697a629168d92c8560400151600a61ffff1661088d919061294e565b866040015187606001516040516107c6939291906001600160801b0393841681529183166020830152909116604082015260600190565b61095a8260000151836020015184606001516001600160801b031685604001516001600160801b031667016345785d8a0000610900919061291e565b61090a919061291e565b85606001516001600160801b031686604001516001600160801b031667016345785d8a0000610939919061291e565b61094b90670de0b6b3a764000061293b565b610955919061291e565b6120af565b50506000818152600f6020526040812080546001600160a01b031990811682556001820180549091169055600201556109936001600055565b50565b6008546001600160a01b031633146109c0576040516282b42960e81b815260040160405180910390fd5b600154604051631c6d221960e21b81526000916001600160a01b0316906371b48864906109f19085906004016128d3565b6020604051808303816000875af1158015610a10573d6000803e3d6000fd5b505050506040513d601f19601f82011682018060405250810190610a349190612975565b60015460405163ef43244560e01b81529192506000916001600160a01b039091169063ef43244590610a6a9086906004016128d3565b6020604051808303816000875af1158015610a89573d6000803e3d6000fd5b505050506040513d601f19601f82011682018060405250810190610aad9190612975565b60015460408051631b6d7f2760e21b815290519293506001600160a01b039091169163e451aaef9185918491636db5fc9c9160048083019260209291908290030181865afa158015610b03573d6000803e3d6000fd5b505050506040513d601f19601f82011682018060405250810190610b279190612975565b600160009054906101000a90046001600160a01b03166001600160a01b031663d38d96396040518163ffffffff1660e01b8152600401602060405180830381865afa158015610b7a573d6000803e3d6000fd5b505050506040513d601f19601f82011682018060405250810190610b9e9190612975565b6040516001600160e01b031960e086901b168152600481019390935260248301919091526044820152606401600060405180830381600087803b158015610be457600080fd5b505af1158015610bf8573d6000803e3d6000fd5b505060015460408051633917f6bf60e11b815290516001600160a01b039092169350630c8da22292508491849163722fed7e9160048083019260009291908290030181865afa158015610c4f573d6000803e3d6000fd5b505050506040513d6000823e601f3d908101601f19168201604052610c77919081019061298e565b6040518363ffffffff1660e01b8152600401610c94929190612a05565b600060405180830381600087803b158015610cae57600080fd5b505af1158015610cc2573d6000803e3d6000fd5b50505050505050565b6009546001600160a01b03163314610cf5576040516282b42960e81b815260040160405180910390fd5b60648161ffff161180610d0c575060018161ffff16105b15610d2a57604051630c8249ad60e01b815260040160405180910390fd5b600d805461ffff191661ffff92909216919091179055565b60015460405163119017d560e11b815260206004820152600360248201526215109160ea1b60448201526000916001600160a01b0316906323202faa90606401602060405180830381865afa158015610d9f573d6000803e3d6000fd5b505050506040513d601f19601f82011682018060405250810190610dc391906128e6565b80610e48575060015460405163119017d560e11b81526020600482015260026024820152614e5360f01b60448201526001600160a01b03909116906323202faa90606401602060405180830381865afa158015610e24573d6000803e3d6000fd5b505050506040513d601f19601f82011682018060405250810190610e4891906128e6565b80610ece575060015460405163119017d560e11b81526020600482015260036024820152621414d560ea1b60448201526001600160a01b03909116906323202faa90606401602060405180830381865afa158015610eaa573d6000803e3d6000fd5b505050506040513d601f19601f82011682018060405250810190610ece91906128e6565b80610f5c575060015460405163119017d560e11b81526001600160a01b03909116906323202faa90610f1b9060040160208082526004908201526343414e4360e01b604082015260600190565b602060405180830381865afa158015610f38573d6000803e3d6000fd5b505050506040513d601f19601f82011682018060405250810190610f5c91906128e6565b80610fe2575060015460405163119017d560e11b815260206004820152600360248201526210509160ea1b60448201526001600160a01b03909116906323202faa90606401602060405180830381865afa158015610fbe573d6000803e3d6000fd5b505050506040513d601f19601f82011682018060405250810190610fe291906128e6565b80611068575060015460405163119017d560e11b81526020600482015260036024820152621055d160ea1b60448201526001600160a01b03909116906323202faa90606401602060405180830381865afa158015611044573d6000803e3d6000fd5b505050506040513d601f19601f8201168201806040525081019061106891906128e6565b806110ed575060015460405163119017d560e11b8152602060048201526002602482015261574f60f01b60448201526001600160a01b03909116906323202faa90606401602060405180830381865afa1580156110c9573d6000803e3d6000fd5b505050506040513d601f19601f820116820180604052508101906110ed91906128e6565b80611167575060015460405163119017d560e11b815260206004820152600060248201526001600160a01b03909116906323202faa90604401602060405180830381865afa158015611143573d6000803e3d6000fd5b505050506040513d601f19601f8201168201806040525081019061116791906128e6565b156111725750600090565b50600190565b611180611dec565b33158061118b575080155b156111a9576040516363803b8760e01b815260040160405180910390fd5b6000818152600f6020908152604091829020825160808101845281546001600160a01b039081168083526001840154909116938201939093526002909101546001600160801b0380821694830194909452600160801b90049092166060830152331461122857604051639ef0770160e01b815260040160405180910390fd5b60008160600151826040015161123e9190612a1e565b6001600160801b031690506000611253610d42565b8351901591506000906001600160a01b03161580159061127f575060208401516001600160a01b031615155b60208501519091506001600160a01b03161582156113365781156112f9576000868152600f602052604080822080546001600160a01b031990811682556001820180549091169055600201919091558501516112ea906112e090600a61294e565b8660600151612145565b6112f43385612041565b61134f565b80156112f4576000868152600f6020526040812080546001600160a01b031990811682556001820180549091169055600201556112f43385612041565b604051631d8bc98160e21b815260040160405180910390fd5b604080860151606087015182516001600160801b03928316815291166020820152879133917fbef64ee3742d6cec6213475da217b25d55f7880356e54cfecc6b0992b1ca9d4f91015b60405180910390a350505050506109936001600055565b6008546001600160a01b031633146113d9576040516282b42960e81b815260040160405180910390fd5b600980546001600160a01b0319166001600160a01b0392909216919091179055565b611403611dec565b33158061140e575080155b1561142c576040516363803b8760e01b815260040160405180910390fd5b6000818152600f6020908152604091829020825160808101845281546001600160a01b0390811682526001830154169281018390526002909101546001600160801b0380821694830194909452600160801b9004909216606083015233146114a757604051639ef0770160e01b815260040160405180910390fd5b6000816060015182604001516114bd9190612a1e565b6001600160801b0316905060006114d2610d42565b8351901591506000906001600160a01b0316158015906114fe575060208401516001600160a01b031615155b84519091506001600160a01b0316158215611336578115611575576000868152600f602052604080822080546001600160a01b031990811682556001820180549091169055600201919091558501516115669061155c90600a61294e565b8660600151611e4a565b6115703385612041565b6115b2565b8015611570576000868152600f6020526040812080546001600160a01b031990811682556001820180549091169055600201556115703385612041565b6040850151869033907fbef64ee3742d6cec6213475da217b25d55f7880356e54cfecc6b0992b1ca9d4f906115e890600a61294e565b6060890151604080516001600160801b03938416815292909116602083015201611398565b6008546001600160a01b03163314611637576040516282b42960e81b815260040160405180910390fd5b60026116438482612ad1565b506003805461ffff838116620100000263ffffffff199092169085161717905560015460408051631b6d7f2760e21b815290516001600160a01b0390921691636db5fc9c916004808201926020929091908290030181865afa1580156116ad573d6000803e3d6000fd5b505050506040513d601f19601f820116820180604052508101906116d19190612975565b60049081556001546040805163d38d963960e01b815290516001600160a01b039092169263d38d96399282820192602092908290030181865afa15801561171c573d6000803e3d6000fd5b505050506040513d601f19601f820116820180604052508101906117409190612975565b60055560015460408051633917f6bf60e11b815290516001600160a01b039092169163722fed7e916004808201926000929091908290030181865afa15801561178d573d6000803e3d6000fd5b505050506040513d6000823e601f3d908101601f191682016040526117b5919081019061298e565b6006906117c29082612ad1565b50505050565b6117d0611dec565b6117d8610d42565b156117f657604051631d8bc98160e21b815260040160405180910390fd5b6104448282612145565b6009546001600160a01b0316331461182a576040516282b42960e81b815260040160405180910390fd5b600180546001600160a01b0319166001600160a01b0392909216919091179055565b60028054819061185b90612a49565b80601f016020809104026020016040519081016040528092919081815260200182805461188790612a49565b80156118d45780601f106118a9576101008083540402835291602001916118d4565b820191906000526020600020905b8154815290600101906020018083116118b757829003601f168201915b505050600184015460028501546003860154600487018054969761ffff8086169862010000909604169650929450909261190d90612a49565b80601f016020809104026020016040519081016040528092919081815260200182805461193990612a49565b80156119865780601f1061195b57610100808354040283529160200191611986565b820191906000526020600020905b81548152906001019060200180831161196957829003601f168201915b5050505050905086565b600c805461199d90612a49565b80601f01602080910402602001604051908101604052809291908181526020018280546119c990612a49565b8015611a165780601f106119eb57610100808354040283529160200191611a16565b820191906000526020600020905b8154815290600101906020018083116119f957829003601f168201915b505050505081565b611a26611dec565b611a2e610d42565b15611a4c57604051631d8bc98160e21b815260040160405180910390fd5b6000818152600f6020908152604091829020825160808101845281546001600160a01b0390811682526001830154169281018390526002909101546001600160801b0380821694830194909452600160801b90049092166060830152611c07576040805160808101825282516001600160a01b03908116825233602080840191825285850180516001600160801b039081168688019081526060808a0151831690880190815260008b8152600f909552978420875181549088166001600160a01b0319918216178255955160018201805491909816961695909517909555935195518416600160801b02959093169490941760029091015551909190611b5390600a61294e565b6001600160801b03169050600083606001516001600160801b031682611b79919061291e565b611b8b9067016345785d8a000061291e565b9050611b96816122a6565b835160408086015160608088015183516001600160801b03938416815260208101889052921692820192909252879233926001600160a01b03909116917f81dc33ad3b88be499aa980c44098ab2e3c48ca3b69d688f17dccc95a54fae39991015b60405180910390a4505050611d91565b80516001600160a01b0316611d7857604080516080810182523381526020838101516001600160a01b0390811682840190815285850180516001600160801b039081168688019081526060808a0151831690880190815260008b8152600f909752978620875181549087166001600160a01b0319918216178255945160018201805491909716951694909417909455925195518316600160801b0295909216949094176002909401939093559151909190611cc390600a61294e565b6001600160801b03169050600083606001516001600160801b031682611ce9919061291e565b611cfb9067016345785d8a000061291e565b9050611d06816122a6565b8484602001516001600160a01b0316336001600160a01b03167f81dc33ad3b88be499aa980c44098ab2e3c48ca3b69d688f17dccc95a54fae3998760400151868960600151604051611bf7939291906001600160801b0393841681526020810192909252909116604082015260600190565b6040516353f1a37560e11b815260040160405180910390fd5b506109936001600055565b600a805461199d90612a49565b600b805461199d90612a49565b6009546001600160a01b03163314611de0576040516282b42960e81b815260040160405180910390fd5b600c61044e8282612ad1565b600260005403611e435760405162461bcd60e51b815260206004820152601f60248201527f5265656e7472616e637947756172643a207265656e7472616e742063616c6c0060448201526064015b60405180910390fd5b6002600055565b60408051608081018252338152600060208201526001600160801b03808516928201929092529082166060820152611e86600e80546001019055565b6000611e91600e5490565b6000818152600f60209081526040808320865181546001600160a01b03199081166001600160a01b039283161783559388015160018301805490951691161790925585015160608601516001600160801b03808316600160801b91831691909102176002909301929092559293509091611f0b9190612a1e565b611f1d9067016345785d8a0000612a1e565b6001600160801b03169050611f31816122a6565b6040830151600090611f4490600a61294e565b60608581015160408051600081526001600160801b038b8116602083015294851691810182905293909116918301919091529150839033907f8f7b122efd596355690f78faec4f1df9372d83757de2fb12046f3b00e14564e89060800160405180910390a3505050505050565b600d54600090819061271090611fcb9061ffff168561291e565b611fd59190612b91565b600854600754919250611ff5916001600160a01b03908116911683612312565b600854604080516001600160a01b039092168252602082018390527f34e8a84e537ed93d93ddf39a78816dcbc74df8397c635838b8cc973d4fa943f8910160405180910390a192915050565b600754612058906001600160a01b03168383612312565b600754604080513081526001600160a01b0385811660208301529092168282015260608201839052517fd1412cf3194637c19cb0b71bc683c851c8d43dd6e516f26930a4737572e6434e9181900360800190a15050565b6007546120c6906001600160a01b03168584612312565b6007546120dd906001600160a01b03168483612312565b600754604080513081526001600160a01b0387811660208301528681168284015290921660608301526080820184905260a08201839052517fb1df176c62b6f0a8f75c3660bf98e2991545ba0c95991cc413819198e1556b2a9181900360c00190a150505050565b60408051608081018252600080825233602083015291810161216885600a61294e565b6001600160801b03168152602001836001600160801b03168152509050612193600e80546001019055565b600061219e600e5490565b6000818152600f60209081526040808320865181546001600160a01b039182166001600160a01b0319918216178355938801516001830180549190921694169390931790925585015160608601516001600160801b03818116600160801b029216919091176002909201919091559192509061221a9086612a1e565b61222c9067016345785d8a0000612a1e565b6001600160801b03169050612240816122a6565b6040838101516060808601518351600081526001600160801b039384166020820152898416818601529216908201529051839133917f2e58e127a559ad81c5410b4c23396bbe7e07b75a9f09f0c6b15899bb093de5819181900360800190a35050505050565b6007546122be906001600160a01b031633308461237a565b600754604080513381523060208201526001600160a01b039092168282015260608201839052517fd1412cf3194637c19cb0b71bc683c851c8d43dd6e516f26930a4737572e6434e9181900360800190a150565b6040516001600160a01b03831660248201526044810182905261237590849063a9059cbb60e01b906064015b60408051601f198184030181529190526020810180516001600160e01b03166001600160e01b0319909316929092179091526123b2565b505050565b6040516001600160a01b03808516602483015283166044820152606481018290526117c29085906323b872dd60e01b9060840161233e565b6000612407826040518060400160405280602081526020017f5361666545524332303a206c6f772d6c6576656c2063616c6c206661696c6564815250856001600160a01b03166124849092919063ffffffff16565b805190915015612375578080602001905181019061242591906128e6565b6123755760405162461bcd60e51b815260206004820152602a60248201527f5361666545524332303a204552433230206f7065726174696f6e20646964206e6044820152691bdd081cdd58d8d9595960b21b6064820152608401611e3a565b6060612493848460008561249b565b949350505050565b6060824710156124fc5760405162461bcd60e51b815260206004820152602660248201527f416464726573733a20696e73756666696369656e742062616c616e636520666f6044820152651c8818d85b1b60d21b6064820152608401611e3a565b600080866001600160a01b031685876040516125189190612bb3565b60006040518083038185875af1925050503d8060008114612555576040519150601f19603f3d011682016040523d82523d6000602084013e61255a565b606091505b509150915061256b87838387612576565b979650505050505050565b606083156125e55782516000036125de576001600160a01b0385163b6125de5760405162461bcd60e51b815260206004820152601d60248201527f416464726573733a2063616c6c20746f206e6f6e2d636f6e74726163740000006044820152606401611e3a565b5081612493565b61249383838151156125fa5781518083602001fd5b8060405162461bcd60e51b8152600401611e3a91906128d3565b80356001600160801b038116811461262b57600080fd5b919050565b6000806040838503121561264357600080fd5b61264c83612614565b915061265a60208401612614565b90509250929050565b60006020828403121561267557600080fd5b5035919050565b634e487b7160e01b600052604160045260246000fd5b604051601f8201601f1916810167ffffffffffffffff811182821017156126bb576126bb61267c565b604052919050565b600067ffffffffffffffff8211156126dd576126dd61267c565b50601f01601f191660200190565b600082601f8301126126fc57600080fd5b813561270f61270a826126c3565b612692565b81815284602083860101111561272457600080fd5b816020850160208301376000918101602001919091529392505050565b60006020828403121561275357600080fd5b813567ffffffffffffffff81111561276a57600080fd5b612493848285016126eb565b803561ffff8116811461262b57600080fd5b60006020828403121561279a57600080fd5b6127a382612776565b9392505050565b6000602082840312156127bc57600080fd5b81356001600160a01b03811681146127a357600080fd5b6000806000606084860312156127e857600080fd5b833567ffffffffffffffff8111156127ff57600080fd5b61280b868287016126eb565b93505061281a60208501612776565b915061282860408501612776565b90509250925092565b60005b8381101561284c578181015183820152602001612834565b50506000910152565b6000815180845261286d816020860160208601612831565b601f01601f19169290920160200192915050565b60c08152600061289460c0830189612855565b61ffff808916602085015280881660408501525085606084015284608084015282810360a08401526128c68185612855565b9998505050505050505050565b6020815260006127a36020830184612855565b6000602082840312156128f857600080fd5b815180151581146127a357600080fd5b634e487b7160e01b600052601160045260246000fd5b808202811582820484141761293557612935612908565b92915050565b8181038181111561293557612935612908565b6001600160801b0382811682821603908082111561296e5761296e612908565b5092915050565b60006020828403121561298757600080fd5b5051919050565b6000602082840312156129a057600080fd5b815167ffffffffffffffff8111156129b757600080fd5b8201601f810184136129c857600080fd5b80516129d661270a826126c3565b8181528560208385010111156129eb57600080fd5b6129fc826020830160208601612831565b95945050505050565b8281526040602082015260006124936040830184612855565b6001600160801b03818116838216028082169190828114612a4157612a41612908565b505092915050565b600181811c90821680612a5d57607f821691505b602082108103612a7d57634e487b7160e01b600052602260045260246000fd5b50919050565b601f82111561237557600081815260208120601f850160051c81016020861015612aaa5750805b601f850160051c820191505b81811015612ac957828155600101612ab6565b505050505050565b815167ffffffffffffffff811115612aeb57612aeb61267c565b612aff81612af98454612a49565b84612a83565b602080601f831160018114612b345760008415612b1c5750858301515b600019600386901b1c1916600185901b178555612ac9565b600085815260208120601f198616915b82811015612b6357888601518255948401946001909101908401612b44565b5085821015612b815787850151600019600388901b60f8161c191681555b5050505050600190811b01905550565b600082612bae57634e487b7160e01b600052601260045260246000fd5b500490565b60008251612bc5818460208701612831565b919091019291505056fea264697066735822122086a356c2fd3692eb939a57c6b80cdedd10ea8e331630343e266081c8874255d564736f6c63430008110033",
    "linkReferences": {}
  },
  "methodIdentifiers": {
    "ONE()": "c2ee3a08",
    "admin()": "f851a440",
    "betCounter()": "a416f5ab",
    "bets(uint256)": "22af00fa",
    "cancelBetA(uint256)": "5ca6d734",
    "cancelBetB(uint256)": "8e9c9fa2",
    "country()": "d8b0b499",
    "createBetA(uint128,uint128)": "0753216d",
    "createBetB(uint128,uint128)": "a0934be8",
    "executeBet(uint256)": "1aae1db3",
    "executionFee()": "40e9903b",
    "game()": "c3fe3e28",
    "isMatchFinished()": "0f1f7d98",
    "isMatchStarted()": "4e883e8c",
    "league()": "d9b29297",
    "oracle()": "7dc0d1d0",
    "owner()": "8da5cb5b",
    "season()": "c50b0fb0",
    "setAdmin(address)": "704b6c02",
    "setExecutionFee(uint16)": "482dd84b",
    "setGame(string,uint16,uint16)": "99b2e74e",
    "setGameOracle(address)": "a5275ebd",
    "takeBet(uint256)": "c511a074",
    "updateOracle(string)": "30d8cf1b",
    "updateSeason(string)": "e5a37200",
    "usdc()": "3e413bee"
  },
  "id": 1
}