{
  "abi": [
    {
      "inputs": [
        {
          "internalType": "address",
          "name": "_gameOracleAddress",
          "type": "address"
        },
        {
          "internalType": "address",
          "name": "_usdc",
          "type": "address"
        },
        {
          "internalType": "address",
          "name": "_admin",
          "type": "address"
        }
      ],
      "stateMutability": "nonpayable",
      "type": "constructor"
    },
    {
      "anonymous": false,
      "inputs": [
        {
          "indexed": true,
          "internalType": "address",
          "name": "accountA",
          "type": "address"
        },
        {
          "indexed": false,
          "internalType": "address",
          "name": "accountB",
          "type": "address"
        },
        {
          "indexed": true,
          "internalType": "uint256",
          "name": "betIndex",
          "type": "uint256"
        },
        {
          "indexed": false,
          "internalType": "uint256",
          "name": "betPriceA",
          "type": "uint256"
        },
        {
          "indexed": false,
          "internalType": "uint256",
          "name": "betPriceB",
          "type": "uint256"
        },
        {
          "indexed": false,
          "internalType": "uint256",
          "name": "contractAmount",
          "type": "uint256"
        }
      ],
      "name": "BetACreated",
      "type": "event"
    },
    {
      "anonymous": false,
      "inputs": [
        {
          "indexed": false,
          "internalType": "address",
          "name": "accountA",
          "type": "address"
        },
        {
          "indexed": true,
          "internalType": "address",
          "name": "accountB",
          "type": "address"
        },
        {
          "indexed": true,
          "internalType": "uint256",
          "name": "betIndex",
          "type": "uint256"
        },
        {
          "indexed": false,
          "internalType": "uint256",
          "name": "betPriceA",
          "type": "uint256"
        },
        {
          "indexed": false,
          "internalType": "uint256",
          "name": "betPriceB",
          "type": "uint256"
        },
        {
          "indexed": false,
          "internalType": "uint256",
          "name": "contractAmount",
          "type": "uint256"
        }
      ],
      "name": "BetBCreated",
      "type": "event"
    },
    {
      "anonymous": false,
      "inputs": [
        {
          "indexed": true,
          "internalType": "address",
          "name": "account",
          "type": "address"
        },
        {
          "indexed": true,
          "internalType": "uint256",
          "name": "betIndex",
          "type": "uint256"
        },
        {
          "indexed": false,
          "internalType": "uint256",
          "name": "betPrice",
          "type": "uint256"
        },
        {
          "indexed": false,
          "internalType": "uint256",
          "name": "contractAmount",
          "type": "uint256"
        }
      ],
      "name": "BetCanceled",
      "type": "event"
    },
    {
      "anonymous": false,
      "inputs": [
        {
          "indexed": true,
          "internalType": "address",
          "name": "winner",
          "type": "address"
        },
        {
          "indexed": true,
          "internalType": "address",
          "name": "loser",
          "type": "address"
        },
        {
          "indexed": false,
          "internalType": "uint256",
          "name": "betPriceWinner",
          "type": "uint256"
        },
        {
          "indexed": false,
          "internalType": "uint256",
          "name": "betPriceLoser",
          "type": "uint256"
        },
        {
          "indexed": false,
          "internalType": "uint256",
          "name": "contractAmount",
          "type": "uint256"
        }
      ],
      "name": "BetExecuted",
      "type": "event"
    },
    {
      "anonymous": false,
      "inputs": [
        {
          "indexed": true,
          "internalType": "address",
          "name": "accountA",
          "type": "address"
        },
        {
          "indexed": true,
          "internalType": "address",
          "name": "accountB",
          "type": "address"
        },
        {
          "indexed": true,
          "internalType": "uint256",
          "name": "betIndex",
          "type": "uint256"
        },
        {
          "indexed": false,
          "internalType": "uint256",
          "name": "betPriceA",
          "type": "uint256"
        },
        {
          "indexed": false,
          "internalType": "uint256",
          "name": "betPriceB",
          "type": "uint256"
        },
        {
          "indexed": false,
          "internalType": "uint256",
          "name": "contractAmount",
          "type": "uint256"
        }
      ],
      "name": "BetTaken",
      "type": "event"
    },
    {
      "anonymous": false,
      "inputs": [
        {
          "indexed": false,
          "internalType": "address",
          "name": "to",
          "type": "address"
        },
        {
          "indexed": false,
          "internalType": "uint256",
          "name": "amount",
          "type": "uint256"
        }
      ],
      "name": "FeeTransferred",
      "type": "event"
    },
    {
      "anonymous": false,
      "inputs": [
        {
          "indexed": false,
          "internalType": "address",
          "name": "from",
          "type": "address"
        },
        {
          "indexed": false,
          "internalType": "address",
          "name": "to1",
          "type": "address"
        },
        {
          "indexed": false,
          "internalType": "address",
          "name": "to2",
          "type": "address"
        },
        {
          "indexed": false,
          "internalType": "address",
          "name": "token",
          "type": "address"
        },
        {
          "indexed": false,
          "internalType": "uint256",
          "name": "amount1",
          "type": "uint256"
        },
        {
          "indexed": false,
          "internalType": "uint256",
          "name": "amount2",
          "type": "uint256"
        }
      ],
      "name": "StakeReturned",
      "type": "event"
    },
    {
      "anonymous": false,
      "inputs": [
        {
          "indexed": false,
          "internalType": "address",
          "name": "from",
          "type": "address"
        },
        {
          "indexed": false,
          "internalType": "address",
          "name": "to",
          "type": "address"
        },
        {
          "indexed": false,
          "internalType": "address",
          "name": "token",
          "type": "address"
        },
        {
          "indexed": false,
          "internalType": "uint256",
          "name": "amount",
          "type": "uint256"
        }
      ],
      "name": "StakeTransferred",
      "type": "event"
    },
    {
      "inputs": [],
      "name": "ONE",
      "outputs": [
        {
          "internalType": "uint16",
          "name": "",
          "type": "uint16"
        }
      ],
      "stateMutability": "view",
      "type": "function"
    },
    {
      "inputs": [],
      "name": "admin",
      "outputs": [
        {
          "internalType": "address",
          "name": "",
          "type": "address"
        }
      ],
      "stateMutability": "view",
      "type": "function"
    },
    {
      "inputs": [],
      "name": "betCounter",
      "outputs": [
        {
          "internalType": "uint256",
          "name": "_value",
          "type": "uint256"
        }
      ],
      "stateMutability": "view",
      "type": "function"
    },
    {
      "inputs": [
        {
          "internalType": "uint256",
          "name": "",
          "type": "uint256"
        }
      ],
      "name": "bets",
      "outputs": [
        {
          "internalType": "address",
          "name": "accountA",
          "type": "address"
        },
        {
          "internalType": "address",
          "name": "accountB",
          "type": "address"
        },
        {
          "internalType": "uint128",
          "name": "betPrice",
          "type": "uint128"
        },
        {
          "internalType": "uint128",
          "name": "contractAmount",
          "type": "uint128"
        }
      ],
      "stateMutability": "view",
      "type": "function"
    },
    {
      "inputs": [
        {
          "internalType": "uint256",
          "name": "_betIndex",
          "type": "uint256"
        }
      ],
      "name": "cancelBetA",
      "outputs": [],
      "stateMutability": "nonpayable",
      "type": "function"
    },
    {
      "inputs": [
        {
          "internalType": "uint256",
          "name": "_betIndex",
          "type": "uint256"
        }
      ],
      "name": "cancelBetB",
      "outputs": [],
      "stateMutability": "nonpayable",
      "type": "function"
    },
    {
      "inputs": [
        {
          "internalType": "uint128",
          "name": "_betPrice",
          "type": "uint128"
        },
        {
          "internalType": "uint128",
          "name": "_contractAmount",
          "type": "uint128"
        }
      ],
      "name": "createBetA",
      "outputs": [],
      "stateMutability": "nonpayable",
      "type": "function"
    },
    {
      "inputs": [
        {
          "internalType": "uint128",
          "name": "_betPrice",
          "type": "uint128"
        },
        {
          "internalType": "uint128",
          "name": "_contractAmount",
          "type": "uint128"
        }
      ],
      "name": "createBetB",
      "outputs": [],
      "stateMutability": "nonpayable",
      "type": "function"
    },
    {
      "inputs": [
        {
          "internalType": "uint256",
          "name": "_betIndex",
          "type": "uint256"
        }
      ],
      "name": "executeBet",
      "outputs": [],
      "stateMutability": "nonpayable",
      "type": "function"
    },
    {
      "inputs": [],
      "name": "executionFee",
      "outputs": [
        {
          "internalType": "uint16",
          "name": "",
          "type": "uint16"
        }
      ],
      "stateMutability": "view",
      "type": "function"
    },
    {
      "inputs": [],
      "name": "game",
      "outputs": [
        {
          "internalType": "contract GameOracle",
          "name": "",
          "type": "address"
        }
      ],
      "stateMutability": "view",
      "type": "function"
    },
    {
      "inputs": [],
      "name": "isMatchFinished",
      "outputs": [
        {
          "internalType": "bool",
          "name": "",
          "type": "bool"
        }
      ],
      "stateMutability": "view",
      "type": "function"
    },
    {
      "inputs": [],
      "name": "isMatchStarted",
      "outputs": [
        {
          "internalType": "bool",
          "name": "",
          "type": "bool"
        }
      ],
      "stateMutability": "view",
      "type": "function"
    },
    {
      "inputs": [],
      "name": "owner",
      "outputs": [
        {
          "internalType": "address",
          "name": "",
          "type": "address"
        }
      ],
      "stateMutability": "view",
      "type": "function"
    },
    {
      "inputs": [
        {
          "internalType": "address",
          "name": "newAdmin",
          "type": "address"
        }
      ],
      "name": "setAdmin",
      "outputs": [],
      "stateMutability": "nonpayable",
      "type": "function"
    },
    {
      "inputs": [
        {
          "internalType": "uint16",
          "name": "_newFee",
          "type": "uint16"
        }
      ],
      "name": "setExecutionFee",
      "outputs": [],
      "stateMutability": "nonpayable",
      "type": "function"
    },
    {
      "inputs": [
        {
          "internalType": "address",
          "name": "_gameOracleAddress",
          "type": "address"
        }
      ],
      "name": "setGameOracle",
      "outputs": [],
      "stateMutability": "nonpayable",
      "type": "function"
    },
    {
      "inputs": [
        {
          "internalType": "uint256",
          "name": "_betIndex",
          "type": "uint256"
        }
      ],
      "name": "takeBet",
      "outputs": [],
      "stateMutability": "nonpayable",
      "type": "function"
    },
    {
      "inputs": [],
      "name": "usdc",
      "outputs": [
        {
          "internalType": "address",
          "name": "",
          "type": "address"
        }
      ],
      "stateMutability": "view",
      "type": "function"
    }
  ],
  "bytecode": {
    "object": "0x60806040526004805461ffff60a01b1916600560a11b1790553480156200002557600080fd5b5060405162002410380380620024108339810160408190526200004891620000ba565b6001600081905580546001600160a01b039485166001600160a01b0319918216179091556002805493851693821693909317909255600480549190931690821617909155600380549091163317905562000104565b80516001600160a01b0381168114620000b557600080fd5b919050565b600080600060608486031215620000d057600080fd5b620000db846200009d565b9250620000eb602085016200009d565b9150620000fb604085016200009d565b90509250925092565b6122fc80620001146000396000f3fe608060405234801561001057600080fd5b50600436106101215760003560e01c8063704b6c02116100ad578063a5275ebd11610071578063a5275ebd146102da578063c2ee3a08146102ed578063c3fe3e28146102f5578063c511a07414610308578063f851a4401461031b57600080fd5b8063704b6c02146102765780638da5cb5b146102895780638e9c9fa21461029c578063a0934be8146102af578063a416f5ab146102c257600080fd5b80633e413bee116100f45780633e413bee146101f557806340e9903b14610220578063482dd84b146102485780634e883e8c1461025b5780635ca6d7341461026357600080fd5b80630753216d146101265780630f1f7d981461013b5780631aae1db31461015857806322af00fa1461016b575b600080fd5b610139610134366004612096565b61032e565b005b61014361034e565b60405190151581526020015b60405180910390f35b6101396101663660046120c9565b6104eb565b6101bb6101793660046120c9565b6006602052600090815260409020805460018201546002909201546001600160a01b0391821692909116906001600160801b0380821691600160801b90041684565b604080516001600160a01b0395861681529490931660208501526001600160801b039182169284019290925216606082015260800161014f565b600254610208906001600160a01b031681565b6040516001600160a01b03909116815260200161014f565b60045461023590600160a01b900461ffff1681565b60405161ffff909116815260200161014f565b6101396102563660046120e2565b6109e2565b610143610ab2565b6101396102713660046120c9565b610ee8565b61013961028436600461210d565b611178565b600354610208906001600160a01b031681565b6101396102aa3660046120c9565b6111eb565b6101396102bd366004612096565b61141d565b6005546102cc9081565b60405190815260200161014f565b6101396102e836600461210d565b61142f565b610235600a81565b600154610208906001600160a01b031681565b6101396103163660046120c9565b6114a2565b600454610208906001600160a01b031681565b61033661182b565b6103408282611884565b61034a6001600055565b5050565b60015460405163119017d560e11b8152602060048201526002602482015261119560f21b60448201526000916001600160a01b0316906323202faa90606401602060405180830381865afa1580156103aa573d6000803e3d6000fd5b505050506040513d601f19601f820116820180604052508101906103ce9190612136565b80610454575060015460405163119017d560e11b815260206004820152600360248201526210515560ea1b60448201526001600160a01b03909116906323202faa90606401602060405180830381865afa158015610430573d6000803e3d6000fd5b505050506040513d601f19601f820116820180604052508101906104549190612136565b806104da575060015460405163119017d560e11b81526020600482015260036024820152622822a760e91b60448201526001600160a01b03909116906323202faa90606401602060405180830381865afa1580156104b6573d6000803e3d6000fd5b505050506040513d601f19601f820116820180604052508101906104da9190612136565b156104e55750600190565b50600090565b6104f361182b565b8060000361051c5760405162461bcd60e51b815260040161051390612158565b60405180910390fd5b60015460408051631b6d7f2760e21b815290516000926001600160a01b031691636db5fc9c9160048083019260209291908290030181865afa158015610566573d6000803e3d6000fd5b505050506040513d601f19601f8201168201806040525081019061058a9190612186565b90506000600160009054906101000a90046001600160a01b03166001600160a01b031663d38d96396040518163ffffffff1660e01b8152600401602060405180830381865afa1580156105e1573d6000803e3d6000fd5b505050506040513d601f19601f820116820180604052508101906106059190612186565b600084815260066020908152604091829020825160808101845281546001600160a01b039081168083526001840154909116938201939093526002909101546001600160801b0380821694830194909452600160801b900490921660608301529192509015801590610683575060208101516001600160a01b031615155b6106cf5760405162461bcd60e51b815260206004820152601760248201527f42657420686173206e6f74206265656e2066696c6c65640000000000000000006044820152606401610513565b6000670de0b6b3a764000082606001516001600160801b03166106f291906121b5565b9050828411156107f45781516001600160a01b0316331461074e5760405162461bcd60e51b81526020600482015260166024820152752cb7ba9030b932903737ba103a3432903bb4b73732b960511b6044820152606401610513565b6000610759826119eb565b61076390836121cc565b9050610773836000015182611a82565b6020830151835160408501516001600160a01b0392831692909116907f0b4b0cc78641a4e7ec1c875b6f31816ea43a0249783579b012697a629168d92c906107bc81600a6121df565b606080890151604080516001600160801b0395861681529385166020850152931692820192909252015b60405180910390a3506109a4565b838311156109085781602001516001600160a01b0316336001600160a01b03161461085a5760405162461bcd60e51b81526020600482015260166024820152752cb7ba9030b932903737ba103a3432903bb4b73732b960511b6044820152606401610513565b6000610865826119eb565b61086f90836121cc565b905061087f836020015182611a82565b82600001516001600160a01b031683602001516001600160a01b03167f0b4b0cc78641a4e7ec1c875b6f31816ea43a0249783579b012697a629168d92c8560400151600a61ffff166108d191906121df565b866040015187606001516040516107e6939291906001600160801b0393841681529183166020830152909116604082015260600190565b6109a48260000151836020015161095485606001516001600160801b031661094e67016345785d8a000088604001516001600160801b0316611af090919063ffffffff16565b90611af0565b61099f86606001516001600160801b031661094e61099067016345785d8a00008a604001516001600160801b0316611af090919063ffffffff16565b670de0b6b3a764000090611b05565b611b11565b505050600082815260066020526040812080546001600160a01b03199081168255600182018054909116905560020155506109df6001600055565b50565b6004546001600160a01b03163314610a335760405162461bcd60e51b81526020600482015260146024820152732337b93134b23232b716103737ba1030b236b4b760611b6044820152606401610513565b60648161ffff1611158015610a4d575060018161ffff1610155b610a905760405162461bcd60e51b81526020600482015260146024820152734e657720666565206f7574206f662072616e676560601b6044820152606401610513565b6004805461ffff909216600160a01b0261ffff60a01b19909216919091179055565b60015460405163119017d560e11b815260206004820152600360248201526215109160ea1b60448201526000916001600160a01b0316906323202faa90606401602060405180830381865afa158015610b0f573d6000803e3d6000fd5b505050506040513d601f19601f82011682018060405250810190610b339190612136565b80610bb8575060015460405163119017d560e11b81526020600482015260026024820152614e5360f01b60448201526001600160a01b03909116906323202faa90606401602060405180830381865afa158015610b94573d6000803e3d6000fd5b505050506040513d601f19601f82011682018060405250810190610bb89190612136565b80610c3e575060015460405163119017d560e11b81526020600482015260036024820152621414d560ea1b60448201526001600160a01b03909116906323202faa90606401602060405180830381865afa158015610c1a573d6000803e3d6000fd5b505050506040513d601f19601f82011682018060405250810190610c3e9190612136565b80610ccc575060015460405163119017d560e11b81526001600160a01b03909116906323202faa90610c8b9060040160208082526004908201526343414e4360e01b604082015260600190565b602060405180830381865afa158015610ca8573d6000803e3d6000fd5b505050506040513d601f19601f82011682018060405250810190610ccc9190612136565b80610d52575060015460405163119017d560e11b815260206004820152600360248201526210509160ea1b60448201526001600160a01b03909116906323202faa90606401602060405180830381865afa158015610d2e573d6000803e3d6000fd5b505050506040513d601f19601f82011682018060405250810190610d529190612136565b80610dd8575060015460405163119017d560e11b81526020600482015260036024820152621055d160ea1b60448201526001600160a01b03909116906323202faa90606401602060405180830381865afa158015610db4573d6000803e3d6000fd5b505050506040513d601f19601f82011682018060405250810190610dd89190612136565b80610e5d575060015460405163119017d560e11b8152602060048201526002602482015261574f60f01b60448201526001600160a01b03909116906323202faa90606401602060405180830381865afa158015610e39573d6000803e3d6000fd5b505050506040513d601f19601f82011682018060405250810190610e5d9190612136565b80610ed7575060015460405163119017d560e11b815260206004820152600060248201526001600160a01b03909116906323202faa90604401602060405180830381865afa158015610eb3573d6000803e3d6000fd5b505050506040513d601f19601f82011682018060405250810190610ed79190612136565b15610ee25750600090565b50600190565b610ef061182b565b33151580610efd57508015155b610f195760405162461bcd60e51b815260040161051390612158565b600081815260066020908152604091829020825160808101845281546001600160a01b039081168083526001840154909116938201939093526002909101546001600160801b0380821694830194909452600160801b900490921660608301523314610fb85760405162461bcd60e51b815260206004820152600e60248201526d2737ba103cb7bab91037b93232b960911b6044820152606401610513565b600081606001518260400151610fce9190612206565b6001600160801b031690506000610fe3610ab2565b8351901591506000906001600160a01b03161580159061100f575060208401516001600160a01b031615155b60208501519091506001600160a01b03161582156110c65781156110895760008681526006602052604080822080546001600160a01b0319908116825560018201805490911690556002019190915585015161107a9061107090600a6121df565b8660600151611ba7565b6110843385611a82565b611118565b801561108457600086815260066020526040812080546001600160a01b031990811682556001820180549091169055600201556110843385611a82565b60405162461bcd60e51b815260206004820152602160248201527f47616d6520737461727465642c2063616e6e6f742063616e63656c206f7264656044820152603960f91b6064820152608401610513565b604080860151606087015182516001600160801b03928316815291166020820152879133917fbef64ee3742d6cec6213475da217b25d55f7880356e54cfecc6b0992b1ca9d4f91015b60405180910390a350505050506109df6001600055565b6003546001600160a01b031633146111c95760405162461bcd60e51b81526020600482015260146024820152732337b93134b23232b716103737ba1037bbb732b960611b6044820152606401610513565b600480546001600160a01b0319166001600160a01b0392909216919091179055565b6111f361182b565b3315158061120057508015155b61121c5760405162461bcd60e51b815260040161051390612158565b600081815260066020908152604091829020825160808101845281546001600160a01b0390811682526001830154169281018390526002909101546001600160801b0380821694830194909452600160801b9004909216606083015233146112b75760405162461bcd60e51b815260206004820152600e60248201526d2737ba103cb7bab91037b93232b960911b6044820152606401610513565b6000816060015182604001516112cd9190612206565b6001600160801b0316905060006112e2610ab2565b8351901591506000906001600160a01b03161580159061130e575060208401516001600160a01b031615155b84519091506001600160a01b03161582156110c65781156113855760008681526006602052604080822080546001600160a01b031990811682556001820180549091169055600201919091558501516113769061136c90600a6121df565b8660600151611884565b6113803385611a82565b6113c2565b801561138057600086815260066020526040812080546001600160a01b031990811682556001820180549091169055600201556113803385611a82565b6040850151869033907fbef64ee3742d6cec6213475da217b25d55f7880356e54cfecc6b0992b1ca9d4f906113f890600a6121df565b6060890151604080516001600160801b03938416815292909116602083015201611161565b61142561182b565b6103408282611ba7565b6004546001600160a01b031633146114805760405162461bcd60e51b81526020600482015260146024820152732337b93134b23232b716103737ba1030b236b4b760611b6044820152606401610513565b600180546001600160a01b0319166001600160a01b0392909216919091179055565b6114aa61182b565b600081815260066020908152604091829020825160808101845281546001600160a01b0390811682526001830154169281018390526002909101546001600160801b0380821694830194909452600160801b90049092166060830152611666576040805160808101825282516001600160a01b03908116825233602080840191825285850180516001600160801b039081168688019081526060808a0151831690880190815260008b81526006909552978420875181549088166001600160a01b0319918216178255955160018201805491909816961695909517909555935195518416600160801b029590931694909417600290910155519091906115b190600a6121df565b6001600160801b0316905060006115ea67016345785d8a000061094e86606001516001600160801b031685611af090919063ffffffff16565b90506115f581611d06565b835160408086015160608088015183516001600160801b03938416815260208101889052921692820192909252879233926001600160a01b03909116917f81dc33ad3b88be499aa980c44098ab2e3c48ca3b69d688f17dccc95a54fae39991015b60405180910390a4505050611820565b80516001600160a01b03166117d857604080516080810182523381526020838101516001600160a01b0390811682840190815285850180516001600160801b039081168688019081526060808a0151831690880190815260008b81526006909752978620875181549087166001600160a01b0319918216178255945160018201805491909716951694909417909455925195518316600160801b029590921694909417600290940193909355915190919061172290600a6121df565b6001600160801b03169050600061175b67016345785d8a000061094e86606001516001600160801b031685611af090919063ffffffff16565b905061176681611d06565b8484602001516001600160a01b0316336001600160a01b03167f81dc33ad3b88be499aa980c44098ab2e3c48ca3b69d688f17dccc95a54fae3998760400151868960600151604051611656939291906001600160801b0393841681526020810192909252909116604082015260600190565b60405162461bcd60e51b815260206004820152601b60248201527f4265742068617320616c7265616479206265656e2066696c6c656400000000006044820152606401610513565b506109df6001600055565b60026000540361187d5760405162461bcd60e51b815260206004820152601f60248201527f5265656e7472616e637947756172643a207265656e7472616e742063616c6c006044820152606401610513565b6002600055565b60408051608081018252338152600060208201526001600160801b038085169282019290925290821660608201526118c0600580546001019055565b60006118cb60055490565b6000818152600660209081526040808320865181546001600160a01b03199081166001600160a01b039283161783559388015160018301805490951691161790925585015160608601516001600160801b03808316600160801b918316919091021760029093019290925592935090916119459190612206565b6119579067016345785d8a0000612206565b6001600160801b0316905061196b81611d06565b604083015160009061197e90600a6121df565b60608581015160408051600081526001600160801b038b8116602083015294851691810182905293909116918301919091529150839033907f8f7b122efd596355690f78faec4f1df9372d83757de2fb12046f3b00e14564e89060800160405180910390a3505050505050565b600454600090819061271090611a0c90600160a01b900461ffff16856121b5565b611a169190612231565b600354600254919250611a36916001600160a01b03908116911683611d72565b600354604080516001600160a01b039092168252602082018390527f34e8a84e537ed93d93ddf39a78816dcbc74df8397c635838b8cc973d4fa943f8910160405180910390a192915050565b600254611a99906001600160a01b03168383611d72565b600254604080513081526001600160a01b0385811660208301529092168282015260608201839052517fd1412cf3194637c19cb0b71bc683c851c8d43dd6e516f26930a4737572e6434e9181900360800190a15050565b6000611afc82846121b5565b90505b92915050565b6000611afc82846121cc565b600254611b28906001600160a01b03168584611d72565b600254611b3f906001600160a01b03168483611d72565b600254604080513081526001600160a01b0387811660208301528681168284015290921660608301526080820184905260a08201839052517fb1df176c62b6f0a8f75c3660bf98e2991545ba0c95991cc413819198e1556b2a9181900360c00190a150505050565b604080516080810182526000808252336020830152918101611bca85600a6121df565b6001600160801b03168152602001836001600160801b03168152509050611bf5600580546001019055565b6000611c0060055490565b6000818152600660209081526040808320865181546001600160a01b03199081166001600160a01b039283161783559388015160018301805490951691161790925585015160608601516001600160801b03808316600160801b91831691909102176002909301929092559293509091611c7a9190612206565b611c8c9067016345785d8a0000612206565b6001600160801b03169050611ca081611d06565b6040838101516060808601518351600081526001600160801b039384166020820152898416818601529216908201529051839133917f2e58e127a559ad81c5410b4c23396bbe7e07b75a9f09f0c6b15899bb093de5819181900360800190a35050505050565b600254611d1e906001600160a01b0316333084611dda565b600254604080513381523060208201526001600160a01b039092168282015260608201839052517fd1412cf3194637c19cb0b71bc683c851c8d43dd6e516f26930a4737572e6434e9181900360800190a150565b6040516001600160a01b038316602482015260448101829052611dd590849063a9059cbb60e01b906064015b60408051601f198184030181529190526020810180516001600160e01b03166001600160e01b031990931692909217909152611e18565b505050565b6040516001600160a01b0380851660248301528316604482015260648101829052611e129085906323b872dd60e01b90608401611d9e565b50505050565b6000611e6d826040518060400160405280602081526020017f5361666545524332303a206c6f772d6c6576656c2063616c6c206661696c6564815250856001600160a01b0316611eea9092919063ffffffff16565b805190915015611dd55780806020019051810190611e8b9190612136565b611dd55760405162461bcd60e51b815260206004820152602a60248201527f5361666545524332303a204552433230206f7065726174696f6e20646964206e6044820152691bdd081cdd58d8d9595960b21b6064820152608401610513565b6060611ef98484600085611f01565b949350505050565b606082471015611f625760405162461bcd60e51b815260206004820152602660248201527f416464726573733a20696e73756666696369656e742062616c616e636520666f6044820152651c8818d85b1b60d21b6064820152608401610513565b600080866001600160a01b03168587604051611f7e9190612277565b60006040518083038185875af1925050503d8060008114611fbb576040519150601f19603f3d011682016040523d82523d6000602084013e611fc0565b606091505b5091509150611fd187838387611fdc565b979650505050505050565b6060831561204b578251600003612044576001600160a01b0385163b6120445760405162461bcd60e51b815260206004820152601d60248201527f416464726573733a2063616c6c20746f206e6f6e2d636f6e74726163740000006044820152606401610513565b5081611ef9565b611ef983838151156120605781518083602001fd5b8060405162461bcd60e51b81526004016105139190612293565b80356001600160801b038116811461209157600080fd5b919050565b600080604083850312156120a957600080fd5b6120b28361207a565b91506120c06020840161207a565b90509250929050565b6000602082840312156120db57600080fd5b5035919050565b6000602082840312156120f457600080fd5b813561ffff8116811461210657600080fd5b9392505050565b60006020828403121561211f57600080fd5b81356001600160a01b038116811461210657600080fd5b60006020828403121561214857600080fd5b8151801515811461210657600080fd5b60208082526014908201527313dc99195c88191bd95cc81b9bdd08195e1a5cdd60621b604082015260600190565b60006020828403121561219857600080fd5b5051919050565b634e487b7160e01b600052601160045260246000fd5b8082028115828204841417611aff57611aff61219f565b81810381811115611aff57611aff61219f565b6001600160801b038281168282160390808211156121ff576121ff61219f565b5092915050565b6001600160801b038181168382160280821691908281146122295761222961219f565b505092915050565b60008261224e57634e487b7160e01b600052601260045260246000fd5b500490565b60005b8381101561226e578181015183820152602001612256565b50506000910152565b60008251612289818460208701612253565b9190910192915050565b60208152600082518060208401526122b2816040850160208701612253565b601f01601f1916919091016040019291505056fea26469706673582212208a5a9e2b655cae58a12b58e917acceb14f1ee84a6c5ed48f3a1e658f47fa321e64736f6c63430008130033",
    "linkReferences": {}
  },
  "methodIdentifiers": {
    "ONE()": "c2ee3a08",
    "admin()": "f851a440",
    "betCounter()": "a416f5ab",
    "bets(uint256)": "22af00fa",
    "cancelBetA(uint256)": "5ca6d734",
    "cancelBetB(uint256)": "8e9c9fa2",
    "createBetA(uint128,uint128)": "0753216d",
    "createBetB(uint128,uint128)": "a0934be8",
    "executeBet(uint256)": "1aae1db3",
    "executionFee()": "40e9903b",
    "game()": "c3fe3e28",
    "isMatchFinished()": "0f1f7d98",
    "isMatchStarted()": "4e883e8c",
    "owner()": "8da5cb5b",
    "setAdmin(address)": "704b6c02",
    "setExecutionFee(uint16)": "482dd84b",
    "setGameOracle(address)": "a5275ebd",
    "takeBet(uint256)": "c511a074",
    "usdc()": "3e413bee"
  },
  "id": 0
}